:040000000CEF00F011
:10000800FACF01F0FBCF02F0E9CF03F07DED01F06C
:10001800D2EF02F0000E4E6E1E50530AD8A43CD008
:10002800EDD0010E4E6E000E106E210E0F6E7F0E7B
:10003800126EDE0E116E71EC02F03CD0020E4E6EA6
:10004800000E106E210E0F6E7F0E126EE50E116EF1
:1000580071EC02F02FD0040E4E6E000E106E210EC1
:100068000F6E7F0E126EEC0E116E71EC02F022D044
:10007800070E4E6E000E106E210E0F6E7F0E126E62
:10008800F30E116E71EC02F015D07F0E116E6A0E30
:10009800106E14EC01F00ED01F50310AD8B4C1D73D
:1000A800030AD8B4CBD7010AD8B4D5D7670AD8B4CD
:1000B800DFD7EBD71E504C0AD8A425D01CC0D9FFD7
:1000C8001DC0DAFF4E50DF12000E106E3F0E0F6E8D
:1000D8007F0E126ECE0E116E71EC02F0000E106ED5
:1000E800210E0F6E000E126E3F0E116E33EC02F0F1
:1000F8007F0E116EFA0E106E000E136E210E126E28
:1001080014EC01F08CD01E50440AD8A428D04E50CC
:10011800FF0A206E1CC0D9FF1DC0DAFF2050DF1671
:10012800000E106E3F0E0F6E7F0E126EC30E116E14
:1001380071EC02F0000E106E210E0F6E000E126EA2
:100148003F0E116E33EC02F07F0E116EFA0E106E38
:10015800000E136E210E126E14EC01F060D07F0EAB
:10016800116E4C0E106E14EC01F059D0000E146E86
:10017800000E136E54EC02F07F0E116E870E106E97
:1001880014EC01F04CD0000E146EFA0E136E54EC01
:1001980002F07F0E116E930E106E14EC01F03FD03A
:1001A800010E146EF40E136E54EC02F07F0E116EF5
:1001B8009F0E106E14EC01F032D0020E146EEE0E8B
:1001C800136E54EC02F07F0E116EAB0E106E14EC31
:1001D80001F025D0030E146EE80E136E54EC02F0F5
:1001E8007F0E116EB70E106E14EC01F018D07F0E52
:1001F800116E2E0E106E14EC01F011D01F50310A42
:10020800D8B4B4D7030AD8B4BED7010AD8B4C8D76B
:10021800070AD8B4D2D7010AD8B4DCD7E8D7120075
:10022800000E166E120E156E58D01750250AD8B447
:1002380004D017509DEC02F050D0000E146E3DD043
:1002480015C0D9FF16C0DAFFDECF18F0DDCF19F0E0
:10025800020E1526000E162219501810D8A419D00F
:100268007F0E196ED70E186E14D018C0F6FF19C07D
:10027800F7FFF86A050EF76403D00800F55005D0BB
:10028800F6CFD9FFF7CFDAFFDF509DEC02F0184A1E
:10029800192A18C0F6FF19C0F7FFF86A050EF764A7
:1002A80003D00800F55005D0F6CFD9FFF7CFDAFF15
:1002B800DF500009D8B411D0D8D710C0F6FF11C04C
:1002C800F7FF104A112A0800F5CF17F01750000A57
:1002D800D8B40ED0730AD8B4B3D710C0F6FF11C083
:1002E800F7FF104A112A0800F5CF17F017669DD7B7
:1002F80012000600EACF04F0E1CF05F0E2CF06F0E5
:10030800D9CF07F0DACF08F0F3CF09F0F4CF0AF02D
:10031800F6CF0BF0F7CF0CF0F8CF0DF0F5CF0EF0CD
:100328009EAA0AD0510E6124D96E000E6220DA6EA0
:10033800AECFDFFF614A622A9EA402D082949E94C7
:100348009EA007D0B10ECF6EDF0ECE6E8270828473
:100358009E900EC0F5FF0DC0F8FF0CC0F7FF0BC054
:10036800F6FF0AC0F4FF09C0F3FF08C0DAFF07C0B0
:10037800D9FF06C0E2FF05C0E1FF04C0EAFF03C0E1
:10038800E9FF02C0FBFF01C0FAFF11000F0EC16EAA
:10039800000E946EF80E936EC3EC02F089EC02F036
:1003A8007F0E116E080E106E14EC01F07E0E116EA9
:1003B800670E106E14EC01F07E0E116EDF0E106EDB
:1003C80014EC01F07E0E116EA30E106E14EC01F009
:1003D800DDEC02F01050800A800F020ED8B40F5CDA
:1003E800D8A0F6D707EC02F04F6E07EC02F0506E7B
:1003F8000F0E1D6E810E1C6E4FC01EF050C01FF0F8
:100408000EEC00F0E5D751C011F06106D8A06206E5
:10041800000E136E000E126E16D0010E12240F6E0F
:10042800000E1320106E510E0F24D96E000E1020EE
:10043800DA6E510E1224E16E000E1320E26EDFCF49
:10044800E7FF124A132A1350800A0F6E6150125C9C
:100458006250800A0F58D8A0E0D71150120010C07F
:1004680014F00FC013F002D0134A142A13C0D9FF96
:1004780014C0DAFFDF50D8B405D0F6D7134A142ACF
:10048800114A122A11C0D9FF12C0DAFF13C0E1FFC6
:1004980014C0E2FFDFCFE7FFE750D8B41200EED771
:1004A800030E166EE80E156E1450800AF36E830E56
:1004B800F35CE90ED8B4135CD8B00ED0E80E132460
:1004C800156E030E1420166EDF0E15240F6EB10E76
:1004D8001620106EB0EC02F0120010C014F00FC01D
:1004E80013F004D0134A142A114A122A11C0F6FF35
:1004F80012C0F7FF13C0D9FF14C0DAFF0800F5CF08
:10050800DFFFDF50D8B41200EDD7CD8ECD80B10E0D
:10051800CF6EDF0ECE6EF28EF28C9D800A0EBD6E0F
:1005280094949D84B50E106EC70E0F6EB0EC02F059
:1005380012000F6E0F500A0AD8A409D09EA8FED741
:100548000A0EAD6E9EA8FED70D0EAD6E04D09EA805
:10055800FED70FC0ADFF1200000E126E0F0E116E07
:1005680011C0D9FF12C0DAFFDF50BE6E20EE01F0D5
:100578001150D9261250DA22DF50BF6E1200948C27
:10058800948EAC8EAC8AAC98AB8EAB88B896AC9493
:10059800190EAF6EF28EF28C9D8A120000EE51F0A9
:1005A800120EEE6AE806FDE1000EF86E0001CAEFD1
:0C05B80001F061C00FF062C010F01200F2
:107E660000273127206120273327206A756E746F1B
:107E760020616F20636F6D616E646F20616E746543
:107E860072696F722070617261206573636F6C68CE
:107E96006572207175616C206C65640A0027532732
:107EA600202B20273127206120273527207061725B
:107EB60061206573636F6C68657220706F736963A8
:107EC600696F6E616D656E746F20646F2073657285
:107ED600766F6D6F746F720A002754272070617277
:107EE600612061706C6963617220612061E7E36FF4
:107EF600206120746F646F73206F73206C656473E8
:107F06000A00274C272065202744272070617261CC
:107F1600206C696761722065206465736C696761AE
:107F260072206C6564730A005072696D6569726FC0
:107F360020706172616D6574726F20696E76616C16
:107F460069646F210A007072696D6569726F2070CD
:107F56006172616D6574726F20696E76616C6964B9
:107F66006F210A00736567756E646F2070617261B8
:107F76006D6574726F20696E76616C69646F210A33
:107F860000536572766F20656D20310A0053657265
:107F9600766F20656D20320A00536572766F206514
:107FA6006D20330A00536572766F20656D20340AA2
:107FB60000536572766F20656D20350A0061706129
:107FC6006761646F28732900616365736F2873297D
:107FD60000286E756C6C29004C6564203120004CBD
:107FE6006564203220004C656420332000546F64A1
:0A7FF6006F73200025730A000000DD
:020000040020DA
:08000000FFFFFFFFFFFFFFFF00
:020000040030CA
:0E000000FF071F1FFF8385FF0FC00FE00F409B
:00000001FF
