:0400000022EF3FF0BC
:107E3200000E826E12003F0E826E1200760E826E6D
:107E420012001F6A1E6A1D6A1C6A1B6A000193EFF8
:107E52003FF001C01BF002C01CF01D6A1E6A010E39
:107E62001F6E1200000E096E000E0A6E000E0B6EDF
:107E7200000E0C6E01A008D00550092606500A22F9
:107E820007500B2208500C22D890053606360736CA
:107E92000836D89004320332023201320450011003
:107EA20002100310D8A4E6D709C001F00AC002F0FC
:107EB2000BC003F00CC004F012001F6606D0000EC7
:107EC200026E010E016E2AEC3FF01BC001F01CC0D5
:107ED20002F01DC003F01EC004F06D0E056E4E0EC2
:107EE200066EC60E076E410E086E33EC3FF001C0FF
:107EF2000FF002C010F003C011F004C012F0390EEE
:107F02000F241B6E300E10201C6E000E11201D6EF1
:107F1200000E12201E6EFF0E1D140D6E7F0E1E141B
:107F22000E6E12000F0EC16E9368F00E9216000EC6
:107F3200946E5EEC3FF0030E0D14156E166A000E81
:107F4200806E15C013F0010E146E132A02D0D89061
:107F52001436132EFCD71450801280CF13F00F0E5C
:107F6200131681500F0B1318D8A418D01CEC3FF035
:107F7200000E186E000E176E1850800A800F040E45
:107F8200D8B4175CD8B031D0820E136EDE0EE82E54
:107F9200FED7132EFCD7174A182AEED780CF13F03C
:107FA2000F0E131681500F0B1318D8B41ED081CFA9
:107FB20013F00F0E1316D8B418D01FEC3FF0000EBA
:107FC2001A6E000E196E1A50800A800F040ED8B471
:107FD200195CD8B00AD0820E136EDE0EE82EFED7E0
:107FE200132EFCD7194A1A2AEED7820E136EDE0E12
:0E7FF200E82EFED7132EFCD719EC3FF09AD7DD
:020000040020DA
:08000000FFFFFFFFFFFFFFFF00
:020000040030CA
:0E000000FF071F1FFF8385FF0FC00FE00F409B
:00000001FF
