:10000000F92F00308A000408840A82070034013482
:1000100000340A34003464340034E83403341034D7
:1000200027340134003410340034003401340034F7
:1000300010344334613472347434E3346F34203414
:100040007234653463346F346E34683465346334C9
:10005000693464346F3421340A340D340034433449
:1000600061346434613473347434723465342034EC
:100070006F3420346334613472347434E3346F3455
:100080000A340D3400344334613472347434E3344C
:100090006F342034633461346434613473347434C1
:1000A0007234613464346F340A340D34003454349F
:1000B000693470346F3420346434653420345434FB
:1000C000613467343A342034253475340A340D34BD
:1000D000003430343134323433343434353436341B
:1000E0003734383439344134423443344434453479
:1000F000463400344C3469347334743461342034FD
:1001000061347034613467346134643461340A3486
:100110000D34003443346F346434693467346F34DD
:0E0120003A342034003425345834203400346E
:1003CA00F001F00A0030B72208000F30FD007D0866
:1003DA00FA00013018220800F000831203130C1EE1
:1003EA00F22970089900080064008001840A040652
:1003FA00031900340406FA29033083120313A200F6
:10040A002208FD0014300A22080083120313A100F7
:10041A00210858227D0483120313A0002008FA0041
:10042A00210818220800FC008312031385107C0897
:10043A00FB007B077E3990247A08902483120313E9
:10044A008514080083120313A2007D09A000220864
:10045A005822831203132005A1002108FA0022085A
:10046A001822080083120313BF003F08BE003E088B
:10047A00B50026300B23003A031D452A0130080037
:10048A000030080083160313861406159817981669
:10049A0018128312031398171816831603131811C8
:1004AA00193099000800F8008312031385107808A0
:1004BA00F70077077E398038902400309024F700BF
:1004CA007708F90083120313851479080800F100EC
:1004DA006400831603139C186D2A71089B003F3031
:1004EA00F00070089C051C1403101C18031400303B
:1004FA00031801301A08080083120313C2004208C5
:10050A00332483120313C0004008C1004208053E89
:10051A008400831380014108031D952A01300800D5
:10052A0000300800F1007108F0007008831203130C
:10053A00E4003F30F0007008831603138605861620
:10054A00023071060319AD2A03307106031DB12A60
:10055A0083120313861708007F30F0007008831295
:10056A0086050800F200831603139C18B82A72083D
:10057A009B0070089A003F30F10071089C058312B5
:10058A00031303108B1B03148B13831603131C15FD
:10059A0055309D00AA309D009C141C118312031330
:1005AA00031C08008B170800780879040319062B26
:1005BA00FD01FD0AF91BED2A01300310F80DF90DB2
:1005CA00FF3E031DE22A0130FC007C08FD07DF2AFA
:1005DA0079087B02031DF32A78087A02031CFB2A96
:1005EA007808FA027908031CFB03FB0201300310A6
:1005FA00F90CF80CFF3E031DFC2A0130FD02031D15
:10060A00ED2A7B08F9007A08F80008008312031320
:10061A00BA000730B6003608FA000D3018228312E5
:10062A0003133A08B600350884003608831380009D
:10063A003508B6003608A300A401A40A3508B70095
:10064A003708A5003C30B8003808A6000C30C6268A
:10065A0083120313B9003908BB003B08031D3A2B68
:10066A0010303C063D0403193E2B0230B600360812
:10067A00BB003B080800831603138510051083127C
:10068A00031385140514EA218D3083120313A30082
:10069A002308FA002A3018223E3083120313A300DB
:1006AA002308FA002B3018221E3083120313A300EA
:1006BA002308FA002D301822FA012C301822403073
:1006CA0083120313A3002308FA00153018223D30C1
:1006DA0083120313A3002308FA00113018220122FF
:1006EA000800F501F601700871040319AD2BF70132
:1006FA00F70AF11B8C2B01300310F00DF10DFF3EB0
:10070A00031D812B0130F4007408F7077E2B01309A
:10071A000310F50DF60DFF3E031D8D2B71087302B4
:10072A00031D992B70087202031CA22B7008F20297
:10073A007108031CF303F302751401300310F10C62
:10074A00F00CFF3E031DA32B0130F702031D8C2B77
:10075A007608F1007508F0000800F40000306C22F9
:10076A00F3007308F500750A031DC12BF001F00AA6
:10077A000030B722F501F50A7408840083130008D3
:10078A00F3007308F0007508B722740A8400831313
:10079A000008F3007308F0007508013EB7227408D8
:1007AA00023E840083130008F3007308F000750802
:1007BA00023EB7227408033E840083130008F30044
:1007CA007308F0007508033EB7227508043EF3006B
:1007DA007308F0000030B7220800F40000306C22E1
:1007EA00F2007208F3007303031D730A031DFF2B43
:1007FA0000300800F501F50A730875020318312C58
:10080A007408840075086C2283130006031D2C2CBF
:10081A00740A84007508013E6C2283130006031DC6
:10082A002C2C7408023E84007508023E6C22831345
:10083A000006031D2C2C7408033E84007508033E31
:10084A006C2283130006031D2C2C0130080004308F
:10085A00F2007208F507012C003008008312031316
:10086A00BF00BA01FA010D30182293308312031324
:10087A00B5003F0884003508831380002030B50096
:10088A003F0A8400350880000830B5003508FD00AD
:10089A0008302722831203133F08B5003508A30046
:1008AA000230B6003608A4003F08B7003708A50092
:1008BA003B30B8003808A6000C30C6268312031352
:1008CA00B9003908BD003D08031D8E2CBE01043055
:1008DA003E020318822C3E083F07B5003508840003
:1008EA0083130008B6003608BA060130B500350889
:1008FA00BE0704303E02031C702C3F08043E8400ED
:10090A00831300083A0603198E2C0230B500350805
:10091A00BD003D080800F1007108F0007008F600FB
:10092A0083120313640303199E2C03306406031D08
:10093A00D62CF201F3017308803AFF0080307F025F
:10094A00031DA92C083072020318182DF61FB12CAA
:10095A00831203130617B72CBF30F00070088312F6
:10096A00031386050D30F000F00BB92C8030F0002F
:10097A0070088312031386060310F60D861A76147E
:10098A000D30F000F00BC72C8030F0007008831295
:10099A00031386060130F2070318F30A0030F3073F
:1009AA00A02CF401F5017508803AFF0080307F021F
:1009BA00031DE12C083074020318182DF61FE92CC8
:1009CA00831203130617EF2CBF30F000700883124E
:1009DA00031386050310F60D0D30F000F00BF32C0F
:1009EA008030F0007008831203138606861A761484
:1009FA000D30F000F00BFF2C8030F00070088312ED
:100A0A00031386060130F4070318F50A0030F507C8
:100A1A007508803AFF0080307F02031D162D0830CA
:100A2A007402031CE32C7608080047220030972240
:100A3A004023831603138611061683120313CC016F
:100A4A00CD014D08803AFF0080307F02031D2F2D13
:100A5A000A304C020318642D8312031386150630DC
:100A6A00C5001330C400B130C300C30B3A2DC40B08
:100A7A003A2DC50B3A2D412D8312031386110630E8
:100A8A00C5001330C400B130C300C30B4A2DC40BD8
:100A9A004A2DC50B4A2D512D013083120313CC0761
:100AAA000318CD0A0030CD074D08803AFF00803088
:100ABA007F02031D622D0A304C02031C312D831262
:100ACA000313061A6C2D0130C3004308E3070830EC
:100ADA006306031D762DE5217430E825831203137E
:100AEA00E30150303722003A0319D72D831203133A
:100AFA005008C300C4014308A0004408A1005130B3
:100B0A00E82546308122003A0319D72D83120313B0
:100B1A0086158430E82583120313CE01CF014F08CE
:100B2A00803AFF0080307F02031D9D2D05304E0262
:100B3A000318C12D831203134E08463E8400831303
:100B4A000008C300C4014308A0004408A1008D3076
:100B5A00E825013083120313CE070318CF0A0030A9
:100B6A00CF074F08803AFF0080307F02031DBF2D58
:100B7A0005304E02031C9F2D2630E82583120313ED
:100B8A00061ACE2D4630B22383120313E3013D30F9
:100B9A00E8254630F223003A0319D52D1330D62D15
:100BAA002930E8258312031386110630C500133055
:100BBA00C400B130C300C30BE02DC40BE02DC50B3C
:100BCA00E02DE72D642D83120313AB002030A20021
:100BDA002208A600013083120313AB07FF302B074C
:100BEA0084000120A2002208AC002C080319080086
:100BFA0025302C060319042E2C08F121EF2D83121F
:100C0A000313A7010F2EA717232EC030A200220814
:100C1A00A704232E0130AB07FF302B0784000120E5
:100C2A00AC00003A0319C52E583A0319082E2D3A7A
:100C3A0003190A2E0D3A0319082EEF2D26088400EF
:100C4A0083130008A900840A0008AA000230A2003F
:100C5A002208A607682EAC01AC0A05302C06031937
:100C6A00712E2C08A2002207013E84000120A30055
:100C7A000120A40024082A02031D452E2308290264
:100C8A00031C712E0130A2002208AC07322EAC01DF
:100C9A00AC0A04302C060319712E2C08A200220774
:100CAA000B3E84000120A3000120A40024082A028C
:100CBA00031D612E23082902031C712E0130A20094
:100CCA002208AC074E2E2708C039803A03194C2E49
:100CDA00403A0319302E712E2C08A2002208A800CF
:100CEA00B22E0A30F8000030F9002808A2002207C4
:100CFA00013E84000120F0000120F1002A08F300DF
:100D0A002908F20076237108FB007008FA00D9223C
:100D1A007808303E83120313A3002308AF2E280855
:100D2A00A20022070B3E84000120F0000120F100FE
:100D3A002A08F3002908F200762370080F39831273
:100D4A000313A3002308A5002508633E840001209D
:100D5A00A2002208AC002C08F121FF3083120313F1
:100D6A00A2002208A807280A0319EF2D2708C0396C
:100D7A00803A0319942E403A0319762EB02EB02EDB
:100D8A00080083120313B1000230A7002708AE003F
:100D9A00B001AD01DF2E1230A7002708B0001030D5
:100DAA00DB2E7730A7002708B0003030A7002708CD
:100DBA00AD00E72E31080C3A0319D62E023A031970
:100DCA00D02EE72E30088038A7002708FA00023014
:100DDA001822803083120313A7002708FD0004306D
:100DEA002722803083120313A7002708FD000A3048
:100DFA000A22FA010130182283120313B201B30145
:100E0A002408A700A80128083302031D0E2F27086B
:100E1A0032020318252F32082307A7002708840067
:100E2A0083130008A8002808FA00093018220130A4
:100E3A0083120313B2070318B30A0030B307052F4E
:100E4A003108A7002708FA00013018220C30831253
:100E5A0003133106031D372F8030A7002708FD0032
:100E6A000D300A22FF3083120313B200FF30B300A1
:100E7A000430582283120313A7002708B400013054
:100E8A00B2020030031CB303B30232083304031D59
:100E9A003418532F34082D0503193D2F8030A7002D
:100EAA002708FD000D30272283120313320833046A
:100EBA000319F72F063058221B39031DF12F83120D
:100ECA000313AE0130083405A700271C6E2FAE01AC
:100EDA00AE0A0C303106031DF72F0A30582283124E
:100EEA000313A7002708B4000C30582207398312CD
:100EFA000313A7002708AF002F080319A82F3408E7
:100F0A00A700A8010310A70DA80D0310A70DA80D8F
:100F1A000310A70DA80D2F082707A90000300318F2
:100F2A0001302807AA002908F83EAB002A0803184E
:100F3A00013EFF3EAC00260884002B088313800084
:100F4A00840A2C08BB2F3408A700A8010310A70D98
:100F5A00A80D0310A70DA80D0310A70DA80D2608AC
:100F6A008400270883138000840A28088000340834
:100F7A00031DC12FB401B40A11303402031CC92F56
:100F8A001030A7002708B400B201B3013408A70043
:100F9A00A80128083302031DD42F27083202031898
:100FAA00EA2F0930582283120313A70032082507B3
:100FBA00A800280884002708831380000130B2079C
:100FCA000318B30A0030B307CB2F32082507A7004E
:100FDA00270884008001F72F023083120313A70029
:100FEA002708AE002E0808008313513084006430AD
:060FFA00F92183011A2D0C
:02400E002AFF87
:00000001FF
