:10000000F92F00308A000408840A82070034013482
:1000100000340A34003464340034E83403341034D7
:1000200027345434693470346F3420346434653484
:1000300020345434613467343A34203425347534F0
:10004000003445346D342034653473347034653491
:10005000723461342E342E342E340A340034433456
:100060006F346434693467346F343A342034003484
:0600700025346434003465
:1004960064008001840A04060319003404064C2A09
:1004A600033083120313A3002308A000143065222F
:1004B60008000F3083120313A0002008FB00013050
:1004C6007322080083120313A2002208B3228312A8
:1004D60003132004A1002108FB0022087322080050
:1004E600FD008312031385107D08FC007C077E390E
:1004F60005257B080525831203138514080083123E
:100506000313A3002009A1002308B32283120313B7
:100516002105A2002208FB0023087322080083128B
:100526000313C0004008BF003F08B600263048232A
:100536000038031DA02A0130080000300800831689
:1005460003138614061598179816181283120313A8
:1005560098171816831603131811193099000800F6
:10056600F9008312031385107908F80078077E399D
:100576008038052500300525F8007808FA00831232
:10058600031385147A08080083120313C300430873
:10059600A82483120313C1004108C2004308053E84
:1005A600840083138001C208031DDB2A0130080082
:1005B60000300800F00070080A3A031DED2A831285
:1005C60003130C1EE22A0A3099000C1EE82A0D308D
:1005D60099000800831203130C1EED2A7008990077
:1005E6000800F1007108F000700883120313EA0096
:1005F6003F30F000700883160313860586167108CF
:10060600023A03190A2B7108033A031D0E2B8312B3
:100616000313861708007F30F000700883128605E2
:100626000800790878040319412BFD01FD0AF91B1E
:10063600282B01300310F80DF90DFF3E031D1D2B6D
:100646000130FC007C08FD071A2B79087B02031D8C
:100656002E2B78087A02031C362B7808FA027908C2
:10066600031CFB03FB0201300310F90CF80CFF3EE0
:10067600031D372B0130FD02031D282B7B08F901D2
:10068600F9077A08F801F807080083120313BB007C
:100696000730B7003708FB000D30732283120313AF
:1006A6003B08B700360884003708831380003608F5
:1006B600B7003708A400A501A50A3608B80038080F
:1006C600A6003D30B9003908A7000C30C6268312B3
:1006D6000313BA003A08BC00BC08031D772B103080
:1006E6003D063E0403197B2B0230B7003708BC00D9
:1006F6003C080800831603138510051083120313A4
:10070600851405145C228D3083120313A40024087B
:10071600FB002A3073223E3083120313A400240800
:10072600FB002B3073221E3083120313A40024080F
:10073600FB002D307322FB012C30732240308312D4
:100746000313A4002408FB00153073223D308312E6
:100756000313A4002408FB0011307322532208005F
:10076600F501F601710870040319EA2BF701F70A7F
:10077600F11BC92B01300310F00DF10DFF3E031DD7
:10078600BE2B0130F4007408F707BB2B01300310B1
:10079600F50DF60DFF3E031DCA2B71087302031DEE
:1007A600D62B70087202031CDF2B7008F202710848
:1007B600031CF303F302751401300310F10CF00C63
:1007C600FF3E031DE02B0130F702031DC92B7608FF
:1007D600F101F1077508F001F00708008312031311
:1007E600A9000430A6002608A00005308222803029
:1007F60083120313A6002608A0000A30652283127E
:100806000313A8012408280203181D2C29088400B4
:1008160083130008A6002608FB0009307322013066
:1008260083120313A6002608A9070130A60026088E
:10083600A807052C0330A6002608FB00013073220A
:10084600FF3083120313A6002608A8000530B32242
:1008560083120313A6002608A7000130A802280861
:10086600031D2719372C292C2230B3228312031398
:10087600A600250884002608831380002130B322B1
:1008860083120313A600250A84002608831380001A
:10089600080083120313C6009330B6003608BB0067
:1008A6007030B6003608BC000230B6003608C90003
:1008B600073049020318752C460884008313000884
:1008C600B60049083B3E8400360880000130B60079
:1008D6003608C6070130B6003608C9070730490290
:1008E600031C5F2C0730B6003608A4004230B70060
:1008F6003708A5003B30F1233B3083120313B600C3
:100906003608A4000930B7003708A5003B30B80008
:100916003808A6004730B9003908A7000C30C626AB
:1009260083120313BA003A08C400C408031DA52C99
:10093600183047064804031DA52C3B08B6003608A8
:10094600C500A62CC5014508080083120313C00084
:10095600BB01FB010D307322933083120313B600E3
:10096600400884003608831380002030B600400A11
:100976008400360880000830B6003608A00008302B
:100986008222831203134008B6003608A400023000
:10099600B7003708A5004008B8003808A6003C3064
:1009A600B9003908A7000C30C62683120313BA0013
:1009B6003A08BE00BE08031D032DBF0104303F02E6
:1009C6000318F72C3F084007B60036088400831347
:1009D6000008B7003708BB060130B6003608BF0767
:1009E60004303F02031CE52C4008043E84008313B8
:1009F60000083B060319032D0230B6003608BE0078
:100A06003E080800F700831203136A08013A031927
:100A1600102D6A08033A031D482DF301F4017408EA
:100A2600803AFF0080307F02031D1B2D08307302C1
:100A36000318882DF71F232D831203130617292D5C
:100A4600BF30F00070088312031386058030F00073
:100A560070088606861A72140D30F000F00B312DE0
:100A66008030F00070088312031386060310F20D1F
:100A76000310F70D0D30F000F00B3F2D0130F3079A
:100A86000318F40A0030F407122DF501F601760872
:100A9600803AFF0080307F02031D532D0830750217
:100AA6000318882D83120313861A71148030F00000
:100AB60070088606F71F612D0617652DBF30F000FA
:100AC600700886050D30F000F00B672D8030F000C1
:100AD60070088312031386060310F10D0310F70D39
:100AE6000D30F000F00B752D0130F5070318F60AEE
:100AF6000030F6077608803AFF0080307F02031D3B
:100B0600862D08307502031C552D7208080000302A
:100B1600F4227D23A2228316031306120610031065
:100B260083120313061C0314031C9D2D8312031347
:100B36000614A02D8312031306101B300F26563001
:100B46009222003A0319002E031083120313061E85
:100B56000314031CB22D831203130616B52D83123C
:100B6600031306125708A101A1075608A001A00702
:100B76000B300F264E30C722003A0319002E2930BB
:100B86000F2683120313D401D5015508803AFF00BE
:100B960080307F02031DD12D053054020318F72D36
:100BA6008312031354084E3E840083130008CA00C0
:100BB600CB014A08A0004B08A10032300F26303086
:100BC6000F26013083120313D4070318D50A003009
:100BD600D5075508803AFF0080307F02031DF52DAA
:100BE60005305402031CD32D27300F264E304C24DB
:100BF60083120313CA004A08CD000330831203137D
:100C0600CC000830CB007830CA00CA0B082ECB0BBC
:100C1600082ECC0B082E922D83120313A800203029
:100C2600A2002208A600013083120313A807FF3092
:100C3600280784000120A2002208AD00AD08031990
:100C460008002D08253A03192B2E2D08DD22162E15
:100C560083120313A701312E2717452E0130A8074B
:100C6600FF30280784000120AD00003A0319C52E85
:100C7600643A0319452E0D3A0319452E1C3A0319F9
:100C86002F2E162E271B5F2E26088400831300089E
:100C9600A900840A0008AA000230A2002208A607BA
:100CA600AA1F6B2E0330A2002208A704A909AA09CD
:100CB600A90A0319AA0A6B2E2608840083130008C2
:100CC600A900840A0008AA000230A2002208A6078A
:100CD600AD01AD0A2D08053A03198A2E2D08A2008A
:100CE6002207013E84000120A3000120A40024085D
:100CF6002A02031D802E23082902031C8A2E013096
:100D0600A2002208AD072D08053A031D712E2708FB
:100D160003390319902E2D30DD22831203132D087B
:100D2600A2002208A500FF3083120313A2002208A6
:100D3600A5072508FF3A0319162E0A30F8000030D9
:100D4600F9002508A2002207013E84000120F000D8
:100D56000120F1002A08F301F3072908F201F2073E
:100D6600B3237108FB01FB077008FA01FA07142385
:100D76007808303E83120313A3002308AD002D0824
:100D8600DD22962E080083120313B2000230A8005B
:100D96002808AF00B101AE01DF2E1230A8002808E6
:100DA600B1001030DB2E7730A8002808B1003030B3
:100DB600A8002808AE00E72E32080C3A0319D62EF2
:100DC600023A0319D02EE72E31088038A8002808E9
:100DD600FB0002307322803083120313A800280818
:100DE600A00004308222803083120313A800280852
:100DF600A0000A306522FB0101307322831203131F
:100E0600B301B4012508A800A90129083402031D6D
:100E16000E2F280833020318252F33082407A800AD
:100E26002808840083130008A9002908FB0009305C
:100E36007322013083120313B3070318B40A003078
:100E4600B407052F3208A8002808FB0001307322DA
:100E56008312031332080C3A031D372F8030A80083
:100E66002808A0000D306522FF3083120313B3005B
:100E7600FF30B4000430B32283120313A8002808FD
:100E8600B5000130B3020030031CB403B4023408C9
:100E96003304031D3518532F35082E0503193D2F2E
:100EA6008030A8002808A0000D3082228312031388
:100EB600340833040319F72F0630B3221B39031DF8
:100EC600F12F83120313AF0131083505A800281C42
:100ED6006E2FAF01AF0A32080C3A031DF72F0A3006
:100EE600B32283120313A8002808B5000C30B322DE
:100EF600073983120313A8002808B0003008031925
:100F0600A82F3508A800A9010310A80DA90D0310E4
:100F1600A80DA90D0310A80DA90D30082807AA00D1
:100F26000030031801302907AB002A08F83EAC0050
:100F36002B080318013EFF3EAD00270884002C084D
:100F460083138000840A2D08BB2F3508A800A90149
:100F56000310A80DA90D0310A80DA90D0310A80DC7
:100F6600A90D27088400280883138000840A29080D
:100F76008000B508031DC12FB501B50A1130350231
:100F8600031CC92F1030A8002808B500B301B4010E
:100F96003508A800A90129083402031DD42F280802
:100FA60033020318EA2F0930B32283120313A80071
:100FB60033082607A900290884002808831380001F
:100FC6000130B3070318B40A0030B407CB2F330837
:100FD6002607A800280884008001F72F0230831214
:100FE6000313A8002808AF002F0808008313583001
:0A0FF60084006A304B2283018A2D2B
:02400E00CAFFE7
:00000001FF
