:02000000FE2FD1
:10078A00033083120313A3002308A0001430D723D5
:10079A0008000F3083120313A0002008FB00013069
:1007AA00E523080083120313A200220814248312EB
:1007BA0003132004A1002108FB002208E5230800F6
:1007CA00FD008312031385107D08FC007C077E3927
:1007DA0046267B08462683120313851408008312D3
:1007EA000313A3002009A10023081424831203136E
:1007FA002105A2002208FB002308E5230800831232
:10080A000313C0004008BF003F08B60026305E242C
:10081A000038031D122C0130080000300800F900CE
:10082A008312031385107908F80078077E39803817
:10083A00462600304626F8007808FA008312031389
:10084A0085147A08080083120313C300430880251D
:10085A0083120313C1004108C2004308053E840005
:10086A0083138001C208031D3C2C013008000030AC
:10087A000800F1007108F000700883120313D80011
:10088A003F30F00070088316031386058616710838
:10089A00023A0319542C7108033A031D582C831287
:1008AA000313861708007F30F0007008831286054C
:1008BA00080083120313BB000730B7003708FB0098
:1008CA000D30E523831203133B08B7003608840072
:1008DA003708831380003608B7003708A400A5013B
:1008EA00A50A3608B8003808A6003D30B90039080C
:1008FA00A7000C30CB2683120313BA003A08BC00B7
:10090A00BC08031D8D2C10303D063E040319912CA2
:10091A000230B7003708BC003C08080083160313EE
:10092A00851005108312031385140514CE238D3008
:10093A0083120313A4002408FB002A30E5233E3067
:10094A0083120313A4002408FB002B30E5231E3076
:10095A0083120313A4002408FB002D30E523FB01B6
:10096A002C30E523403083120313A4002408FB0033
:10097A001530E5233D3083120313A4002408FB003D
:10098A001130E523C523080083120313A90004309C
:10099A00A6002608A0000530F42380308312031332
:1009AA00A6002608A0000A30D72383120313A80141
:1009BA00240828020318F52C290884008313000848
:1009CA00A6002608FB000930E52301308312031331
:1009DA00A6002608A9070130A6002608A807DD2CCC
:1009EA000330A6002608FB000130E523FF308312FE
:1009FA000313A6002608A800053014248312031343
:100A0A00A6002608A7000130A8022808031D2719F6
:100A1A000F2D012D2230142483120313A60025085A
:100A2A0084002608831380002130142483120313C0
:100A3A00A600250A84002608831380000800831272
:100A4A000313C6009330B6003608BB007030B600F8
:100A5A003608BC000230B6003608C9000730490221
:100A6A0003184D2D4608840083130008B600490870
:100A7A003B3E8400360880000130B6003608C607BF
:100A8A000130B6003608C90707304902031C372D62
:100A9A000730B6003608A4004230B7003708A50070
:100AAA003B30C9243B3083120313B6003608A40036
:100ABA000930B7003708A5003B30B8003808A6004F
:100ACA004730B9003908A7000C30CB26831203132C
:100ADA00BA003A08C400C408031D7D2D1830470621
:100AEA004804031D7D2D3B08B6003608C5007E2D3F
:100AFA00C5014508080083120313C000BB01FB01AE
:100B0A000D30E523933083120313B60040088400A6
:100B1A003608831380002030B600400A8400360865
:100B2A0080000830B6003608A0000830F42383128B
:100B3A0003134008B6003608A4000230B70037088D
:100B4A00A5004008B8003808A6003C30B9003908AA
:100B5A00A7000C30CB2683120313BA003A08BE0052
:100B6A00BE08031DDB2DBF0104303F020318CF2D41
:100B7A003F084007B6003608840083130008B70010
:100B8A003708BB060130B6003608BF0704303F02FB
:100B9A00031CBD2D4008043E8400831300083B0655
:100BAA000319DB2D0230B6003608BE003E080800E5
:100BBA0000303E24932483160313861183120313F1
:100BCA00D401D5015508803AFF0080307F02031D09
:100BDA00F02D0A3054020318252E831203138615AA
:100BEA000330CC008A30CB005630CA00CA0BFB2D2A
:100BFA00CB0BFB2DCC0BFB2D022E8312031386117C
:100C0A000330CC008A30CB005630CA00CA0B0B2EF8
:100C1A00CB0B0B2ECC0B0B2E122E0130831203138F
:100C2A00D4070318D50A0030D5075508803AFF00C3
:100C3A0080307F02031D232E0A305402031CF22D3A
:100C4A0056300424003A0319392E4E302824003A2B
:100C5A000319392E8312031386114E302425831269
:100C6A000313CA004A08CD00831203138615823083
:100C7A00CB00DD30CA00CA0B402ECB0B402E452ECE
:100C8A00252EF700831203135808013A0319512E2F
:100C9A005808033A031D892EF301F4017408803AB7
:100CAA00FF0080307F02031D5C2E08307302031898
:100CBA00C92EF71F642E8312031306176A2EBF303C
:100CCA00F00070088312031386058030F000700864
:100CDA008606861A72140330F000F00B722E8030EA
:100CEA00F00070088312031386060310F20D031036
:100CFA00F70D0330F000F00B802E0130F3070318D4
:100D0A00F40A0030F407532EF501F6017608803A0A
:100D1A00FF0080307F02031D942E083075020318ED
:100D2A00C92E83120313861A71148030F0007008DA
:100D3A008606F71FA22E0617A62EBF30F0007008EF
:100D4A0086050330F000F00BA82E8030F000700802
:100D5A008312031386060310F10D0310F70D0330F7
:100D6A00F000F00BB62E0130F5070318F60A003032
:100D7A00F6077608803AFF0080307F02031DC72EEF
:100D8A0008307502031C962E72080800831203139A
:100D9A00B2000230A8002808AF00B101AE01E42E6B
:100DAA001230A8002808B1001030E02E7730A800D1
:100DBA002808B1003030A8002808AE00EC2E32080E
:100DCA000C3A0319DB2E023A0319D52EEC2E310800
:100DDA008038A8002808FB000230E52380308312FF
:100DEA000313A8002808A0000430F42380308312DB
:100DFA000313A8002808A0000A30D723FB010130FA
:100E0A00E52383120313B301B4012508A800A9013D
:100E1A0029083402031D132F2808330203182A2F26
:100E2A0033082407A8002808840083130008A900AF
:100E3A002908FB000930E523013083120313B307A5
:100E4A000318B40A0030B4070A2F3208A800280889
:100E5A00FB000130E5238312031332080C3A031D09
:100E6A003C2F8030A8002808A0000D30D723FF307F
:100E7A0083120313B300FF30B40004301424831226
:100E8A000313A8002808B5000130B3020030031C80
:100E9A00B403B40234083304031D3518582F350837
:100EAA002E050319422F8030A8002808A0000D3013
:100EBA00F42383120313340833040319FC2F063076
:100ECA0014241B39031DF62F83120313AF013108B3
:100EDA003505A800281C732FAF01AF0A32080C3A57
:100EEA00031DFC2F0A30142483120313A8002808B8
:100EFA00B5000C301424073983120313A8002808FC
:100F0A00B00030080319AD2F3508A800A901031055
:100F1A00A80DA90D0310A80DA90D0310A80DA90D60
:100F2A0030082807AA000030031801302907AB004F
:100F3A002A08F83EAC002B080318013EFF3EAD001C
:100F4A00270884002C0883138000840A2D08C02FE8
:100F5A003508A800A9010310A80DA90D0310A80DB2
:100F6A00A90D0310A80DA90D2708840028088313CA
:100F7A008000840A29088000B508031DC62FB50120
:100F8A00B50A11303502031CCE2F1030A8002808EC
:100F9A00B500B301B4013508A800A9012908340233
:100FAA00031DD92F280833020318EF2F0930142400
:100FBA0083120313A80033082607A900290884000E
:100FCA002808831380000130B3070318B40A0030DD
:100FDA00B407D02F33082607A80028088400800108
:100FEA00FC2F023083120313A8002808AF002F0831
:060FFA0008008301DD2D5B
:02400E00D8FFD9
:00000001FF
