:020000001028C6
:10000800FE00030EF1000408F2000A08F300831250
:1000180003137F08F4007F2F1128F701F8018313D9
:100028005E3084006E309F278301362A83120313C3
:10003800BD000230B3003308BA00BC01B90133284F
:100048001230B3003308BC0010302F287730B300CB
:100058003308BC003030B3003308B9003B283D08F2
:100068000C3A03192A28023A031924283B283C0889
:100078008038B3003308A80002304027803083124C
:100088000313B3003308AB000430612780308312B8
:100098000313B3003308AB000A307127831203132C
:1000A800A8010130402783120313BE01BF013008A5
:1000B800B300B40134083F02031D642833083E022C
:1000C80003187B283E082F07B300330884008313E6
:1000D8000008B4003408A800093040270130831212
:1000E8000313BE070318BF0A0030BF075B283D088B
:1000F800B3003308A80001304027831203133D08DA
:100108000C3A031D8D288030B3003308AB000D3046
:100118007127FF3083120313BE00FF30BF00043085
:10012800082783120313B3003308C0000130BE024E
:100138000030031CBF03BF023F083E04031D4018E4
:10014800A92840083905031993288030B3003308DB
:10015800AB000D306127831203133F083E040319D7
:100168004D29063008271B39031D4729831203131D
:10017800BA013C084005B300331CC428BA01BA0AC6
:100188003D080C3A031D4D290A3008278312031332
:10019800B3003308C0000C30082707398312031353
:1001A800B3003308BB003B080319FE284008B3001E
:1001B800B4010310B30DB40D0310B30DB40D031047
:1001C800B30DB40D3B083307B500003003180130F8
:1001D8003407B6003508F83EB70036080318013E64
:1001E800FF3EB80032088400370883138000840A71
:1001F800380811294008B300B4010310B30DB40D39
:100208000310B30DB40D0310B30DB40D3208840000
:10021800330883138000840A34088000C008031D53
:100228001729C001C00A11304002031C1F291030D1
:10023800B3003308C000BE01BF014008B300B401D9
:1002480034083F02031D2A2933083E0203184029B7
:100258000930082783120313B3003E083107B4009E
:10026800340884003308831380000130BE07031864
:10027800BF0A0030BF0721293E083107B300330801
:10028800840080014D29023083120313B300330820
:10029800BA003A08080083120313B9002C30AE00E4
:1002A8002E08B200013083120313B907FF30390753
:1002B80084000024AE002E08BA00BA08031908000A
:1002C8003A08253A03196B293A08A72756298312B1
:1002D8000313B3017629B3178A29C030AE002E085C
:1002E800B3048A290130B907FF3039078400002494
:1002F800BA00003A0319352A583A03196F292D3ADA
:10030800031971290D3A03196F29562932088400F7
:1003180083130008B500840A0008B6000230AE0056
:100328002E08B207CF29BA01BA0A3A08053A0319C2
:10033800D8293A08AE002E07013E84000024AF00F9
:100348000024B00030083602031DAC292F083502FE
:10035800031CD8290130AE002E08BA079929BA0122
:10036800BA0A3A08043A0319D8293A08AE002E07FF
:100378000B3E84000024AF000024B0003008360291
:10038800031DC8292F083502031CD8290130AE00E7
:100398002E08BA07B5293308C039803A0319B3299A
:1003A800403A03199729D8293A08AE002E08B40014
:1003B800212A0A30A7000030A8003408AE002E0712
:1003C800013E84000024A0000024A1003608A301F7
:1003D800A3073508A201A2077F258312031321086A
:1003E800AA01AA072008A901A907F7258312031360
:1003F8002708303EAF002F081E2A3408AE002E070B
:100408000B3E84000024A0000024A1003608A301AC
:10041800A3073508A201A2077F258312031320082A
:100428000F39AF002F08B10031084F3E8400002477
:10043800AE002E08BA003A08A727FF30831203132C
:10044800AE002E08B4073408FF3A031956293308BA
:10045800C039803A0319012A403A0319DD291F2AB5
:100468001F2A08002F270030BD26BF258316031337
:10047800861183120313D901DA015A08803AFF0062
:1004880080307F02031D4A2A0A30590203187F2A46
:100498008312031386150630D1001330D000B13013
:1004A800CF00CF0B552AD00B552AD10B552A5C2AE1
:1004B8008312031386110630D1001330D000B130F7
:1004C800CF00CF0B652AD00B652AD10B652A6C2A81
:1004D800013083120313D9070318DA0A0030DA0748
:1004E8005A08803AFF0080307F02031D7D2A0A30B7
:1004F8005902031C4C2AAF27760875040319A52A4C
:10050800622683120313CF004F08D2005208633AC1
:10051800031DA52A86155330302560304F2106303B
:1005280083120313D1001330D000B130CF00CF0BAA
:100538009B2AD00B9B2AD10B9B2AA22A8312031336
:1005480086115D305127003A0319FB2A83120313E1
:100558005D08CF00D0014F08AC005008AD003D3019
:100568004F215330DD26003A0319FB2A8312031367
:10057800861571304F2183120313DB01DC015C08FF
:10058800803AFF0080307F02031DCC2A05305B02D1
:100598000318F02A831203135B08533E8400831365
:1005A8000008CF00D0014F08AC005008AD007A30E9
:1005B8004F21013083120313DB070318DC0A0030D4
:1005C800DC075C08803AFF0080307F02031DEE2ABA
:1005D80005305B02031CCE2A26304F215330E0241D
:1005E800003A0319F92A1330FA2A29304F218312C5
:1005F800031386110630D1001330D000B130CF007C
:10060800CF0B042BD00B042BD10B042B0B2B7F2AE5
:1006180083120313A0002008F5007508A5006E08D2
:10062800013A03191B2B6E08033A031D512BA10134
:10063800A2012208803AFF0080307F02031D262B8A
:10064800083021020318932B83120313A51F2E2BA6
:100658000617322BBF30F500750886050D30F500FA
:10066800F50B342B8030F5007508831203138606CA
:100678000310A50D861A25140D30F500F50B422B35
:100688008030F50075088312031386060130A10730
:100698000318A20A0030A2071D2B83120313A3011B
:1006A800A4012408803AFF0080307F02031D5E2BDE
:1006B800083023020318932B83120313A51F662BFC
:1006C80006176A2BBF30F500750886050310A50DBF
:1006D8000D30F500F50B6E2B8030F5007508831290
:1006E80003138606861A25140D30F500F50B7A2BB0
:1006F8008030F50075088312031386060130A307BE
:100708000318A40A0030A4072408803AFF008030A8
:100718007F02031D912B08302302031C602B8312D8
:0607280003132508080080
:1008000004308A000408840A82070034013400346A
:100810000A34003464340034E834033410342734A8
:100820000134003410340034003401340034103406
:100830004334613472347434E3346F3420347234AA
:10084000653463346F346E346834653463346934CA
:1008500064346F3421340A340D3400344334613449
:1008600064346134733474347234653420346F34D6
:1008700020346334613472347434E3346F340A34B2
:100880000D3400345434693470346F34203464349B
:10089000653420345434613467343A342034253498
:1008A00075340A340D340034303431343234333456
:1008B00034343534363437343834393441344234CE
:1008C000433444344534463400344334613464346E
:1008D00061347334743472346F3420346634653464
:1008E000693474346F340D340A34003443346F3453
:1008F0006434693467346F343A3420340034253436
:1009000058342034003483120313CB00C601A801ED
:100910000D304027933083120313C1004B0884002D
:100920004108831380002030C1004B0A8400410835
:1009300080000830C1004108AB00083061278312F5
:1009400003134B08C1004108AF000230C200420847
:10095000B0004B08C3004308B1004730C40044084E
:10096000B2000C301A2083120313C5004508C900D9
:10097000C908031DDE2CCA0104304A020318D22C18
:100980004A084B07C1004108840083130008C200D5
:100990004208C6060130C1004108CA0704304A02B5
:1009A000031CC02C4B08043E840083130008460639
:1009B0000319DE2C0230C1004108C90049080800B3
:1009C00083120313A2000030F32683120313A00046
:1009D0002008A1002108013A0319F22C2108FF3A4E
:1009E000031DF42C00300800A301A30A21082302F0
:1009F00003182E2D220884002308F32683130006F3
:100A0000031D272D83120313220A84002308013EAD
:100A1000F32683130006031D272D831203132208D8
:100A2000023E84002308023EF32683130006031DC2
:100A3000272D831203132208033E84002308033E5C
:100A4000F32683130006031D272D01300800043010
:100A500083120313A0002008A307F62C003008001F
:100A600083120313A2000030F32683120313A100A4
:100A70002108A3002308FF3A031D462DF501F50ABE
:100A80000030952683120313A301A30A22088400D1
:100A900083130008A1002108F5002308952683127E
:100AA0000313220A840083130008A1002108F50023
:100AB0002308013E9526831203132208023E840078
:100AC00083130008A1002108F5002308023E9526A3
:100AD000831203132208033E840083130008A1003D
:100AE0002108F5002308033E9526831203132308EB
:100AF000043EA1002108F50000309526080083126D
:100B00000313A501A601210820040319B82DA4018F
:100B1000A40AA11B972D01300310A00DA10DFF3ECB
:100B2000031D8C2D0130F5007508A407892D0130B7
:100B30000310A50DA60DFF3E031D982D21082302CD
:100B4000031DA42D20082202031CAD2D2008A202A3
:100B50002108031CA303A302251401300310A10CD8
:100B6000A00CFF3E031DAE2D0130A402031D972DE6
:100B70002608A101A1072508A001A00708008316E7
:100B800003138510051083120313851405148D2794
:100B90008D3083120313AF002F08A8002A3040279E
:100BA0003E3083120313AF002F08A8002B304027DC
:100BB0001E3083120313AF002F08A8002D304027EA
:100BC00083120313A8012C304027403083120313F3
:100BD000AF002F08A800153040273D3083120313C3
:100BE000AF002F08A8001130402796270800831275
:100BF0000313280827040319262EAB01AB0AA81BF0
:100C00000D2E01300310A70DA80DFF3E031D022E6F
:100C10000130F6007608AB07FF2D28082A02031DD5
:100C2000132E27082902031C1B2E2708A9022808B7
:100C3000031CAA03AA0201300310A80CA70CFF3E54
:100C4000031D1C2E0130AB02031D0D2E2A08A80126
:100C5000A8072908A701A707080083120313C600E5
:100C60000730C2004208A8000D304027831203134A
:100C70004608C200410884004208831380004108EE
:100C8000C2004208AF00B001B00A4108C3004308E7
:100C9000B1004830C4004408B2000C301A2083125E
:100CA0000313C5004508C700C708031D5C2E10309C
:100CB000480649040319602E0230C2004208C700EA
:100CC00047080800831203135E08F5007508A000AA
:100CD000FF30F7070318F80AFF30F807A101A20157
:100CE0002208803AF5007808803A7502031D7A2EB2
:100CF000770821020318912E831203132108013E65
:100D00005E3E840083130008F50021085E3E8400E7
:100D1000750880000130A1070318A20A0030A2075D
:100D2000702E831203132008080083120313A000FF
:100D3000831603139C18982E83120313200883161E
:100D400003139B0075089A003F30F60076089C0557
:100D50008312031303108B1B03148B1383160313CB
:100D60001C1555309D00AA309D009C141C11831247
:100D70000313031C08008B170800F6007608F50023
:100D8000750883120313EE003F30F50075088316D3
:100D90000313860586167608023A0319D32E7608C1
:100DA000033A031DD72E83120313861708007F30E2
:100DB000F500750883128605080083120313CE0020
:100DC0004E08832483120313CC004C08CD004E0838
:100DD000053E840083138001CD08031DF12E0130F0
:100DE000080000300800F6006400831603139C1806
:100DF000F42E76089B003F30F50075089C051C1406
:100E000003101C1803140030031801301A080800DE
:100E100083120313A60085102608F60076077E3994
:100E200080380C2300300C23F6007608831203135D
:100E3000A700851427080800831203138C1E0800DE
:100E40001A08F00077085E3E840070088313800063
:100E50000130F7070318F80A0030F8070800831676
:100E60000313861406159817981618128312031385
:100E700098171816831603131811193099000800D3
:100E800083120313AA0085102A08A90029077E39B6
:100E90000C238312031328080C23831203138514D5
:100EA000080083120313CB004B08CA004A08C10094
:100EB00026302D260038031D5F2F0130080000303A
:100EC000080083120313AE002B09AC002E0808277C
:100ED000831203132C05AD002D08A8002E0840270F
:100EE000080083120313AD002D0808278312031393
:100EF0002B04AC002C08A8002D08402708001C2754
:100F0000740883120313FF0073088A0072088400B8
:100F1000710E8300FE0E7E0E09000F308312031344
:100F2000AB002B08A80001304027080003308312D3
:100F30000313AE002E08AB001430712708006400C4
:100F40008001840A0406031900340406A02FF5006A
:100F5000831203130C1EA82F750899000800780847
:0C0F6000F601F6077708F501F507080018
:02400E002AFF87
:00000001FF
