:10000000F92F00308A000408840A82070034013482
:1000100000340A34003464340034E83403341034D7
:1000200027345434693470346F3420346434653484
:1000300020345434613467343A34203425347534F0
:1000400000344F346C34613420346D3475346E3484
:1000500064346F342134003443346F34643469348D
:1000600067346F343A34203400344F346B340A34FC
:0C00700000342534643400342E34003495
:1004340064008001840A04060319003404061B2A9C
:10044400033083120313A3002308A00014303422C2
:1004540008000F3083120313A0002008FB000130B2
:100464004222080083120313A2002208822283126C
:1004740003132004A1002108FB00220842220800E3
:10048400FD008312031385107D08FC007C077E3970
:10049400D8247B08D82483120313851408008312FC
:1004A4000313A3002009A10023088222831203134B
:1004B4002105A2002208FB0023084222080083121F
:1004C4000313C0004008BF003F08B60026304D2388
:1004D4000038031D6F2A013008000030080083161D
:1004E400031386140615981798161812831203130B
:1004F4009817181683160313181119309900080059
:10050400F9008312031385107908F80078077E39FF
:100514008038D8240030D824F8007808FA008312F0
:10052400031385147A08080083120313C3004308D5
:100534007B2483120313C1004108C2004308053E13
:10054400840083138001C208031DAA2A0130080015
:1005540000300800F00070080A3A031DBC2A831218
:1005640003130C1EB12A0A3099000C1EB72A0D3051
:1005740099000800831203130C1EBC2A700899000A
:100584000800F1007108F000700883120313EB00F7
:100594003F30F00070088316031386058616710831
:1005A400023A0319D92A7108033A031DDD2A83127A
:1005B4000313861708007F30F00070088312860545
:1005C4000800790878040319102BFD01FD0AF91BB2
:1005D400F72A01300310F80DF90DFF3E031DEC2A34
:1005E4000130FC007C08FD07E92A79087B02031D21
:1005F400FD2A78087A02031C052B7808FA02790888
:10060400031CFB03FB0201300310F90CF80CFF3E42
:10061400031D062B0130FD02031DF72A7B08F90197
:10062400F9077A08F801F807080083160313851000
:10063400051083120313851405142B228D308312A5
:100644000313A4002408FB002A3042223E30831204
:100654000313A4002408FB002B3042221E30831213
:100664000313A4002408FB002D304222FB012C308C
:100674004222403083120313A4002408FB001530E7
:1006840042223D3083120313A4002408FB001130DE
:1006940042222222080083120313BB000730B70052
:1006A4003708FB000D304222831203133B08B700C6
:1006B400360884003708831380003608B7003708EB
:1006C400A400A501A50A3608B8003808A6003D30E4
:1006D400B9003908A7000C30C62683120313BA00E8
:1006E4003A08BC002F300F2683120313BC08031DE5
:1006F400802B10303D063E040319842B0230B700D2
:100704003708BC003C080800F501F60171087004C4
:100714000319BD2BF701F70AF11B9C2B01300310C1
:10072400F00DF10DFF3E031D912B0130F400740810
:10073400F7078E2B01300310F50DF60DFF3E031D58
:100744009D2B71087302031DA92B70087202031CF0
:10075400B22B7008F2027108031CF303F302751440
:1007640001300310F10CF00CFF3E031DB32B0130DC
:10077400F702031D9C2B7608F101F1077508F001BF
:10078400F007080083120313A9000430A60026080A
:10079400A00005305122803083120313A6002608DE
:1007A400A0000A30342283120313A801240828026B
:1007B4000318F02B2908840083130008A6002608D8
:1007C400FB0009304222013083120313A6002608DD
:1007D400A9070130A6002608A807D82B0330A600D5
:1007E4002608FB0001304222FF3083120313A600C7
:1007F4002608A8000530822283120313A6002608C7
:10080400A7000130A8022808031D27190A2CFC2B75
:100814002230822283120313A600250884002608AE
:10082400831380002130822283120313A600250A39
:100834008400260883138000080083120313C60073
:100844009330B6003608BB007030B6003608BC00E2
:100854000230B6003608C900073049020318482C94
:100864004608840083130008B60049083B3E840010
:10087400360880000130B6003608C6070130B600DD
:100884003608C90707304902031C322C0730B6006A
:100894003608A4004230B7003708A5003B30C42313
:1008A4003B3083120313B6003608A4000930B700A6
:1008B4003708A5003B30B8003808A6004730B90017
:1008C4003908A7000C30C62683120313BA003A086D
:1008D400C400C408031D782C183047064804031DBF
:1008E400782C3B08B6003608C500792CC5014508AC
:1008F400080083120313C000BB01FB010D30422228
:10090400933083120313B60040088400360883131F
:1009140080002030B600400A840036088000083089
:10092400B6003608A0000830512283120313400891
:10093400B6003608A4000230B7003708A500400806
:10094400B8003808A6003C30B9003908A7000C30BC
:10095400C62683120313BA003A08BE00BE08031D5C
:10096400D62CBF0104303F020318CA2C3F084007AD
:10097400B6003608840083130008B7003708BB06A6
:100984000130B6003608BF0704303F02031CB82C00
:100994004008043E8400831300083B060319D62C48
:1009A4000230B6003608BE003E080800F700831285
:1009B40003136B08013A0319E32C6B08033A031D74
:1009C4001B2DF301F4017408803AFF0080307F028C
:1009D400031DEE2C0830730203185B2DF71FF62C51
:1009E400831203130617FC2CBF30F0007008831227
:1009F400031386058030F00070088606861A721488
:100A04000D30F000F00B042D8030F00070088312DC
:100A1400031386060310F20D0310F70D0D30F000DA
:100A2400F00B122D0130F3070318F40A0030F40719
:100A3400E52CF501F6017608803AFF0080307F024C
:100A4400031D262D0830750203185B2D8312031332
:100A5400861A71148030F00070088606F71F342D52
:100A64000617382DBF30F000700886050D30F000F1
:100A7400F00B3A2D8030F0007008831203138606C1
:100A84000310F10D0310F70D0D30F000F00B482D9D
:100A94000130F5070318F60A0030F6077608803AA5
:100AA400FF0080307F02031D592D08307502031C9E
:100AB400282D720808000130C322172371228316DF
:100AC4000313861183120313D401D5015508803A08
:100AD400FF0080307F02031D712D0A305402031879
:100AE400A62D1B300F268312031386150330CC006A
:100AF4000830CB007830CA00CA0B7E2DCB0B7E2D7C
:100B0400CC0B7E2D8312031386110330CC000830E6
:100B1400CB007830CA00CA0B8D2DCB0B8D2DCC0B9E
:100B24008D2D013083120313D4070318D50A003026
:100B3400D5075508803AFF0080307F02031DA42D9D
:100B44000A305402031C732D36300F2658306122AC
:100B5400003A0319FE2D831203135808CA00CB016F
:100B64004A08A0004B08A1000B300F264E309622F5
:100B7400003A0319FE2D83120313861126300F2623
:100B840083120313D601D7015708803AFF0080303F
:100B94007F02031DCF2D053056020318F52D831255
:100BA400031356084E3E840083130008CA00CB0189
:100BB4004A08A0004B08A10033300F262D300F2621
:100BC400013083120313D6070318D70A0030D7075E
:100BD4005708803AFF0080307F02031DF32D053053
:100BE4005602031CD12D31300F264E301F248312A0
:100BF4000313CA004A08CD00831203138615063076
:100C0400CC001330CB00B130CA00CA0B072ECB0B7B
:100C1400072ECC0B072E0E2EA62D83120313AC0029
:100C24002030A2002208A600013083120313AC076F
:100C3400FF302C0784000120A2002208AD00AD087B
:100C4400031908002D08253A03192B2E2D08AC2270
:100C5400162E83120313A701312E2717452E0130B8
:100C6400AC07FF302C0784000120AD00003A0319C3
:100C7400C52E643A0319452E0D3A0319452E1C3A24
:100C840003192F2E162E271B5F2E2608840083138C
:100C94000008A800840A0008A9000230A200220863
:100CA400A607A91F6B2E0330A2002208A704A809D7
:100CB400A909A80A0319A90A6B2E2608840083131C
:100CC4000008A800840A0008A9000230A200220833
:100CD400A607AD01AD0A2D08053A03198A2E2D0881
:100CE400A2002207013E84000120A3000120A400E9
:100CF40024082902031D802E23082802031C8A2E9F
:100D04000130A2002208AD072D08053A031D712EFB
:100D1400270803390319902E2D30AC2283120313B4
:100D24002D08A2002208A500FF3083120313A2009D
:100D34002208A5072508FF3A0319162E0A30F800E1
:100D44000030F9002508A2002207013E840001209A
:100D5400F0000120F1002908F301F3072808F2014B
:100D6400F20786237108FB01FB077008FA01FA07F2
:100D7400E3227808303E83120313A3002308AD0056
:100D84002D08AC22962E080083120313B200023001
:100D9400A8002808AF00B101AE01DF2E1230A80070
:100DA4002808B1001030DB2E7730A8002808B100E5
:100DB4003030A8002808AE00E72E32080C3A031998
:100DC400D62E023A0319D02EE72E31088038A80017
:100DD4002808FB0002304222803083120313A8004B
:100DE4002808A00004305122803083120313A80085
:100DF4002808A0000A303422FB0101304222831269
:100E04000313B301B4012508A800A9012908340279
:100E1400031D0E2F280833020318252F3308240737
:100E2400A8002808840083130008A9002908FB00EF
:100E340009304222013083120313B3070318B40AA2
:100E44000030B407052F3208A8002808FB00013041
:100E540042228312031332080C3A031D372F8030C9
:100E6400A8002808A0000D303422FF308312031399
:100E7400B300FF30B4000430822283120313A800AD
:100E84002808B5000130B3020030031CB403B402D7
:100E940034083304031D3518532F35082E05031960
:100EA4003D2F8030A8002808A0000D305122831265
:100EB4000313340833040319F72F063082221B3935
:100EC400031DF12F83120313AF0131083505A80068
:100ED400281C6E2FAF01AF0A32080C3A031DF72FFE
:100EE4000A30822283120313A8002808B5000C30AC
:100EF4008222073983120313A8002808B00030089F
:100F04000319A82F3508A800A9010310A80DA90DDD
:100F14000310A80DA90D0310A80DA90D300828076A
:100F2400AA000030031801302907AB002A08F83E54
:100F3400AC002B080318013EFF3EAD0027088400D7
:100F44002C0883138000840A2D08BB2F3508A800C1
:100F5400A9010310A80DA90D0310A80DA90D0310D4
:100F6400A80DA90D27088400280883138000840A8B
:100F740029088000B508031DC12FB501B50A113039
:100F84003502031CC92F1030A8002808B500B3018E
:100F9400B4013508A800A90129083402031DD42F7F
:100FA400280833020318EA2F09308222831203131C
:100FB400A80033082607A9002908840028088313F9
:100FC40080000130B3070318B40A0030B407CB2FF4
:100FD40033082607A800280884008001F72F023070
:100FE40083120313A8002808AF002F0808008313F6
:0C0FF400593084006B301A2283015D2DFF
:02400E002AFF87
:00000001FF
