:020000001028C6
:10000800FE00030EF1000408F2000A08F300831250
:1000180003137F08F400DA291128F701F801831384
:100028003E3084004F30582283011C298312031369
:10003800B3002C30AE002E08B10001308312031338
:10004800B307FF30330784002422AE002E08B9001E
:10005800B908031908003908253A03193628390858
:100068000D22212883120313B2010130B307FF3098
:10007800330784002422B900003A0319BD28643AE2
:1000880003194A280D3A03194A28212831088400FF
:1000980083130008B500840A0008B6000230AE00D9
:1000A8002E08B107B61F61280330AE002E08B2042F
:1000B800B509B609B50A0319B60AB901B90A390862
:1000C800053A031980283908AE002E07013E84003E
:1000D8002422AF002422B00030083602031D7628FF
:1000E8002F083502031C80280130AE002E08B907FE
:1000F8003908053A031D6728320803390319862889
:100108002D300D22831203133908AE002E08B400D7
:10011800FF3083120313AE002E08B4073408FF3AE9
:10012800031921280A30A7000030A8003408AE00BF
:100138002E07013E84002422A0002422A1003608B4
:10014800A301A3073508A201A207642183120313A0
:100158002108AA01AA072008A901A907A421831236
:1001680003132708303EAF002F08B90039080D22C5
:100178008C28080083120313A000A1012008F500B1
:100188007508A300A2010830220203181A29CE1C00
:10019800EE28A31FD1288616D528DF30F50075086C
:1001A80086050310A30D0310A10D1030F500750886
:1001B80086062130F500F50BDF2883120313061B92
:1001C80021141030F500750886062130F500F50B6E
:1001D800EB2810291030F5007508831203138606E2
:1001E800061B21142130F500F50BF82883120313A0
:1001F800A31F002986160429DF30F5007508860537
:100208000310A30D0310A10D1030F5007508860624
:100218002130F500F50B0E290130F5007508831221
:100228000313A20708302202031CCB282108080068
:1002380038220330F52183120313BC01013049220F
:100248008030BE200430BE20823083120313BB00EE
:10025800DD30BA00BA0B2E29BB0B2E29332900300A
:100268004922003049220230BE200030BE208312CD
:100278000313BA003A08BC00013049228312031361
:100288003C08BA00BB013A08AC003B08AD000B3093
:100298001A2083120313BD010A303D0203183529C1
:1002A8008230BB00DD30BA00BA0B5829BB0B582985
:1002B8005D29013083120313BA003A08BD0750299B
:1002C80083120313A501A6012108200403199D29FF
:1002D800A401A40AA11B7C2901300310A00DA10DC3
:1002E800FF3E031D71290130F5007508A4076E292A
:1002F80001300310A50DA60DFF3E031D7D29210821
:100308002302031D892920082202031C92292008A0
:10031800A2022108031CA303A30225140130031021
:10032800A10CA00CFF3E031D93290130A402031D5C
:100338007C292608A101A1072508A001A00708001B
:1003480083120313280827040319D329AB01AB0A26
:10035800A81BBA2901300310A70DA80DFF3E031DE5
:10036800AF290130F6007608AB07AC2928082A0225
:10037800031DC02927082902031CC8292708A90228
:100388002808031CAA03AA0201300310A80CA70C12
:10039800FF3E031DC9290130AB02031DBA292A08F3
:1003A800A801A8072908A701A70708008C1EEA29A1
:1003B8001A08F00077083E3E840070088313800016
:1003C8000130F7070318F80A0030F8077408FF002F
:1003D80073088A0072088400710E8300FE0E7E0E78
:1003E8000900F6004F30F5007508831603138605DB
:1003F8000617761C032A831203130616082AEF3001
:10040800F5007508831286057608F5007508CE0094
:100418000800F50075080A3A031D1D2A8312031304
:100428000C1E122A0A3099000C1E182A0D30990049
:100438000800831203130C1E1D2A75089900080072
:1004480002308A000408840A820700340134003428
:100458000A34003464340034E83403341034273464
:10046800253464340A3400348316031386140615BD
:1004780098179816181283120313981718168316CC
:1004880003131811193099000800F60076080319AB
:10049800512A83120313861708007F30F500750868
:1004A800831203138605080064008001840A040689
:0804B800031900340406592A5F
:00000001FF
