:10000000FE2F00308A000408840A8207003401347D
:1000100000341034003400340134003410344134DE
:10002000643464347234653473347334203450343B
:100030004F3452345434423420343D34203430343C
:100040007834253458340A3400343034313432347E
:100050003334343435343634373438343934413445
:0C00600042344334443445344634003408
:100DAE0083160313861406159817981618128312B5
:100DBE000313981718168316031318111930990078
:100DCE000800F00070080A3A031DF82E8312031370
:100DDE000C1EED2E0A3099000C1EF32E0D309900CC
:100DEE000800831203130C1EF82E700899000800D9
:100DFE00831603138E15003083120313AD00863055
:100E0E00AC00D726831203132D08F901F9072C081D
:100E1E00F801F8070930742783120313AE01AF01EE
:100E2E002F08803AFF0080307F02031D202F3230C2
:100E3E002E020318092F823083120313AB00DD300C
:100E4E00AA00AA0B282FAB0B282F2D2F01308312AF
:100E5E000313AE070318AF0A0030AF07172FF501C3
:100E6E00F6017108700403196D2FF701F70AF11BD3
:100E7E004C2F01300310F00DF10DFF3E031D412FDD
:100E8E000130F4007408F7073E2F01300310F50D02
:100E9E00F60DFF3E031D4D2F71087302031D592FD2
:100EAE0070087202031C622F7008F2027108031C94
:100EBE00F303F302751401300310F10CF00CFF3E36
:100ECE00031D632F0130F702031D4C2F7608F1012D
:100EDE00F1077508F001F007080083120313A8004C
:100EEE007830FA007A08A200013083120313A807A3
:100EFE00FF30280784000120FA007A08A900A9080B
:100F0E00031908002908253A0319902F2908E82605
:100F1E007B2F83120313A0010130A807FF3028078F
:100F2E0084000120A900003A0319FD2F583A031935
:100F3E00A42F203A0319A42F7B2F22088400000827
:100F4E00A300840A0008A4000230FA007A08A2075F
:100F5E00A901A90A2908043A0319CE2F2908FA0073
:100F6E007A07013E84000120FB000120FC007C0872
:100F7E002402031DC42F7B082302031CCE2F013035
:100F8E00FA007A08A9072908043A031DB52F290883
:100F9E00FA007A08A700FF30FA007A0883120313CA
:100FAE00A7072708FF3A03197B2F2708FA007A07AD
:100FBE00013E84000120F0000120F1002408F3011D
:100FCE00F3072308F201F207362770080F39FB00EA
:100FDE007B0883120313A10021081F3E8400012009
:100FEE00FA007A08A9002908E826D22F0800830102
:020FFE00FF2EC4
:02400E00D8FFD9
:00000001FF
