:020000001028C6
:10000800FE00030EF1000408F2000A08F300831250
:1000180003137F08F400D0291128F701F80183138E
:100028003D3084004D302E2283014329831203136F
:10003800B3002C30AE002E08B10001308312031338
:10004800B307FF3033078400B021AE002E08B90093
:10005800B908031908003908253A03193628390858
:10006800EB21212883120313B2010130B307FF30BB
:1000780033078400B021B900003A0319BD28643A57
:1000880003194A280D3A03194A28212831088400FF
:1000980083130008B500840A0008B6000230AE00D9
:1000A8002E08B107B61F61280330AE002E08B2042F
:1000B800B509B609B50A0319B60AB901B90A390862
:1000C800053A031980283908AE002E07013E84003E
:1000D800B021AF00B021B00030083602031D7628E9
:1000E8002F083502031C80280130AE002E08B907FE
:1000F8003908053A031D6728320803390319862889
:100108002D30EB21831203133908AE002E08B400FA
:10011800FF3083120313AE002E08B4073408FF3AE9
:10012800031921280A30A7000030A8003408AE00BF
:100138002E07013E8400B021A000B021A10036089E
:10014800A301A3073508A201A20703218312031301
:100158002108AA01AA072008A901A9077A21831260
:1001680003132708303EAF002F08B9003908EB21E8
:100178008C28080083120313A000A201A3012308FE
:10018800803AFF0080307F02031DCC28083022020D
:100198000318FF2883120313861A21147F30F500F1
:1001A80075088605A01FDA280617DE28BF30F50077
:1001B800750886050830F500F50BE028831203134F
:1001C80086170310A10D0310A00DEA28EB280000E4
:1001D800013083120313A2070318A30A0030A307F0
:1001E8002308803AFF0080307F02031DFD28083075
:1001F8002202031CCE28831203132108080083124D
:100208000313A501A6012108200403193C29A40110
:10021800A40AA11B1B2901300310A00DA10DFF3E4C
:10022800031D10290130F5007508A4070D290130B8
:100238000310A50DA60DFF3E031D1C29210823024E
:10024800031D282920082202031C31292008A202A4
:100258002108031CA303A302251401300310A10CD9
:10026800A00CFF3E031D32290130A402031D1B29E7
:100278002608A101A1072508A001A007080002225D
:100288002322013013228030BE200430BE200130EA
:100298001322823083120313BB00DD30BA00BA0B7D
:1002A8005329BB0B53295829013013220230BE2091
:1002B8000030BE2083120313BA003A08BC003C0881
:1002C800BA00BB013A08AC003B08AD000B301A205D
:1002D80000301322823083120313BB00DD30BA00D2
:1002E800BA0B7429BB0B7429792958298312031373
:1002F800280827040319A929AB01AB0AA81B9029D0
:1003080001300310A70DA80DFF3E031D85290130FC
:10031800F6007608AB07822928082A02031D9629C9
:1003280027082902031C9E292708A9022808031C5C
:10033800AA03AA0201300310A80CA70CFF3E031D54
:100348009F290130AB02031D90292A08A801A8079C
:100358002908A701A707080001308A000408840AB1
:1003680082070034013400340A3400346434003421
:10037800E834033410342734543465346D3470341D
:1003880065347234613474347534723461342034B1
:10039800253464340A3400348C1EE0291A08F0002D
:1003A80077083D3E84007008831380000130F7070A
:1003B8000318F80A0030F8077408FF0073088A0069
:1003C80072088400710E8300FE0E7E0E0900F5008F
:1003D80075080A3A031DFB29831203130C1EF02922
:1003E8000A3099000C1EF6290D3099000800831276
:1003F80003130C1EFB2975089900080083160313C4
:10040800861406159817981618128312031398174E
:100418001816831603131811193099000800F600EE
:100428007608013A031D1C2A8312031306160800D6
:10043800EF30F500750883120313860508002F3086
:10044800F5007508831603138605861683120313B1
:100458008617080064008001840A04060319003422
:0404680004062F2A2D
:00000001FF
