:040000000CEF00F011
:10000800FACF01F0FBCF02F0E9CF03F00EED00F0DC
:10001800A6EF00F00600EACF04F0E1CF05F0E2CF4A
:1000280006F0D9CF07F0DACF08F0F3CF09F0F4CF14
:100038000AF0F6CF0BF0F7CF0CF0F8CF0DF0F5CFB4
:100048000EF09EA402D082949E949EA003D082704B
:1000580082849E900EC0F5FF0DC0F8FF0CC0F7FF1C
:100068000BC0F6FF0AC0F4FF09C0F3FF08C0DAFFAF
:1000780007C0D9FF06C0E2FF05C0E1FF04C0EAFFE0
:1000880003C0E9FF02C0FBFF01C0FAFF1100949012
:1000980098EC00F018C013F019C014F06AEC00F0E6
:1000A8000D0E176EFC0EE82EFED7172EFCD7184A39
:1000B800192A1950800A7D0FE90ED8B4185CD8A007
:1000C800E9D7000E196E000E186EE4D7030E166EEF
:1000D800E80E156E1450800AF36E830EF35CE90E79
:1000E800D8B4135CD8B00CD0E80E1324156E030EE8
:1000F8001420166E15C00FF016C010F085EC00F035
:100108001200000E126E0F0E116E11C0D9FF12C030
:10011800DAFFDF50BE6E20EE01F01150D9261250E2
:10012800DA22DF50BF6E1200CD8ECD80B10ECF6EB9
:10013800DF0ECE6EF28EF28C9D800A0EBD6E949408
:0A0148009D84120000014BEF00F04F
:020000040020DA
:08000000FFFFFFFFFFFFFFFF00
:020000040030CA
:0E000000FF071F1FFF8385FF0FC00FE00F409B
:00000001FF
