:040000005AEF04F0BF
:100600000001000A006400E80310274F6C61206DB0
:10061000756E646F210025640000000E146E0F0ECD
:10062000136E89D01C50250AD8B404D01C504EEC4F
:1006300004F081D0000E156E0DC0F6FF0EC0F7FF5E
:100640000D4A0E2A0800F5CF1CF01C50000AD8B441
:100650007DD0640AD8B403D00D0AD8A46CD013C0DE
:10066000D9FF14C0DAFFDECF17F0DDCF18F0020E8D
:100670001326000E14221850800AF36E800EF35CCD
:10068000000ED8B4175CD8B006D0030E1512176C44
:10069000181ED8B0182A010E1C6E1C50050AD8B4BA
:1006A00016D01C50020D010EF324F66E060EF42037
:1006B000F76E0900F5CF11F00900F5CF12F01150D7
:1006C000175C12501858D8A002D01C2AE6D715C0C3
:1006D00011F0030E1116D8B403D02D0E4EEC04F019
:1006E0001CC016F024D01650020D010EF324F66E35
:1006F000060EF420F76E0900F5CF03F00A00F5CFDF
:1007000004F017C001F018C002F0D3EC03F001C0F0
:1007100008F002C009F0000E0B6E0A0E0A6EFCEC27
:1007200003F00850300F1C6E1C504EEC04F01606FF
:100730001628D8A4D8D70DC0F6FF0EC0F7FF0D4A73
:100740000E2A0800F5CF1CF01C666CD712009468C6
:1007500093683BEC04F05FEC04F054EC04F0000E02
:100760001E6E060E0E6E0B0E0D6E0DEC03F0060ED9
:100770000E6E160E0D6E000E1DEC04F001C00FF093
:1007800002C010F00DEC03F047EC04F01E5064ECD6
:1007900004F01E2A410E1D6EEE0EE82EFED71D2E11
:1007A000FCD700D0E4D7000E066E000E056E045094
:1007B0000310D8B41CD0010E076E04D0D8900336B5
:1007C0000436072A04AEFAD7D89005360636035009
:1007D000015C04500258D8A005D00350015E0450BB
:1007E000025A0580D89004320332072EEDD705C097
:1007F00001F006C002F012000B500A10D8B418D055
:10080000010E0C6E04D0D8900A360B360C2A0BAEB3
:10081000FAD70A50085C0B500958D8A004D00A50E7
:10082000085E0B50095AD8900B320A320C2EF1D7C1
:1008300008C008F009C009F01200066EF00EC216DA
:100840000650C212060EE82EFED700D0C280C28229
:10085000C2B2FED7C2801A0E036EF80EE82EFED783
:10086000032EFCD700D0C3CF04F0056A04C001F00A
:1008700005C002F01200948C948EAC8EAC8AAC98B9
:10088000AB8EAB88B896AC94190EAF6E12000A0E00
:100890004EEC04F00D0E4EEC04F01200016E9EA81A
:1008A000FED701C0ADFF1200C08E000EC16E000E5B
:1008B000C06E1200000EF86E0001A7EF03F00C0EE0
:1008C000BD12CB68CA841200016E01C0BEFF1200C7
:020000040020DA
:08000000FFFFFFFFFFFFFFFF00
:020000040030CA
:0E000000FF071F1FFF8385FF0FC00FE00F409B
:00000001FF
