:040000000CEF00F011
:10000800FACF01F0FBCF02F0E9CF03F071ED03F076
:0400180021EF04F0E0
:1006000000274C272070617261204C696761722C51
:100610002065202744272070617261206465736C17
:10062000696761722E0A004572726F2C20636172D5
:1006300061637465726520696E76616C69646F21AF
:100640000A004C6564206465736C696761646F0AB5
:10065000004C6564206C696761646F0A00000EECF1
:1006600004F00F0EC16E000E816E9390060E116E97
:10067000010E106EE9EC03F035EC04F01050800A26
:10068000800F010ED8B40F5CD8A0F6D7B1EC03F000
:10069000176E17504C0AD8B404D017506C0AD8A45F
:1006A00008D08180060E116E510E106EE9EC03F039
:1006B000E3D71750440AD8B404D01750640AD8A41A
:1006C00008D08190060E116E420E106EE9EC03F018
:1006D000D3D78190060E116E270E106EE9EC03F051
:1006E000CBD70600EACF04F0E1CF05F0E2CF06F069
:1006F000D9CF07F0DACF08F0F3CF09F0F4CF0AF042
:10070000F6CF0BF0F7CF0CF0F8CF0DF0F5CF0EF0E1
:100710009EAA0AD0180E2824D96E000E2920DA6E5F
:10072000AECFDFFF284A292A0EC0F5FF0DC0F8FF23
:100730000CC0F7FF0BC0F6FF0AC0F4FF09C0F3FFBF
:1007400008C0DAFF07C0D9FF06C0E2FF05C0E1FF1D
:1007500004C0EAFF03C0E9FF02C0FBFF01C0FAFFCB
:10076000110018C014F02806D8A02906000E166E35
:10077000000E156E16D0010E15240F6E000E1620F9
:10078000106E180E0F24D96E000E1020DA6E180E9F
:100790001524E16E000E1620E26EDFCFE7FF154A4A
:1007A000162AFF0E0F6EFF0E106E28C011F029C022
:1007B00012F00F501126105012221650800A136E9C
:1007C0001150155C1250800A1358D8A0D4D7145079
:1007D00012001AD010C0F6FF11C0F7FF0800F55044
:1007E0000A0AD8A407D00A0E2EEC04F00D0E2EEC47
:1007F00004F008D010C0F6FF11C0F7FF0800F55054
:100800002EEC04F0104A112A10C0F6FF11C0F7FFB9
:100810000800F5500009D8B41200DCD7000E296E8C
:10082000000E286E948C948EAC8EAC8AAC98AB8EF5
:10083000AB88B896AC94190EAF6EF28EF28C9D8A8E
:10084000120000EE18F0120EEE6AE806FDE1000E4E
:10085000F86E060EF76E00012FEF03F00F6EAC92EC
:100860000FC0ADFFACB21200FDD728C00FF029C0F9
:0408700010F0120072
:020000040020DA
:08000000FFFFFFFFFFFFFFFF00
:020000040030CA
:0E000000FF071F1FFF8385FF0FC00FE00F409B
:00000001FF
