:040000000CEF00F011
:10000800FACF01F0FBCF02F0E9CF03F0F8ED03F0EF
:04001800B0EF04F051
:100600000001000A006400E80310275049432061FC
:1006100074697661646F2F6E00696E646578203D41
:100620002025640A0000000E226E1D0E216E89D066
:100630002A50250AD8B404D02A50C5EC04F081D041
:10064000000E236E1BC0F6FF1CC0F7FF1B4A1C2ABE
:100650000800F5CF2AF02A50000AD8B47DD0640AE9
:10066000D8B403D00D0AD8A46CD021C0D9FF22C0C1
:10067000DAFFDECF25F0DDCF26F0020E2126000EB8
:1006800022222650800AF36E800EF35C000ED8B44E
:10069000255CD8B006D0030E2312256C261ED8B0D8
:1006A000262A010E2A6E2A50050AD8B416D02A50DE
:1006B000020D010EF324F66E060EF420F76E09000B
:1006C000F5CF1FF00900F5CF20F01F50255C20501A
:1006D0002658D8A002D02A2AE6D723C01FF0030E3E
:1006E0001F16D8B403D02D0EC5EC04F02AC024F098
:1006F00024D02450020D010EF324F66E060EF420D1
:10070000F76E0900F5CF11F00A00F5CF12F025C001
:100710000FF026C010F066EC04F00FC016F010C009
:1007200017F0000E196E0A0E186E8FEC04F01650BA
:10073000300F2A6E2A50C5EC04F024062428D8A4D1
:10074000D8D71BC0F6FF1CC0F7FF1B4A1C2A0800A5
:10075000F5CF2AF02A666CD712000F0EC16E93688F
:1007600020EE3BF010EE2CF00D0EDECFE6FFE82E73
:10077000FCD700014880EBEC04F0060E1C6E0B0E5B
:100780001B6E13EC03F003EC05F0FEEC04F0000E1E
:10079000146E2C0E136E3AC015F031EC04F000010B
:1007A00048A007D03A2A3A500C0AD8A407D0000E25
:1007B00004D03A063AAE02D00B0E3A6E000E396EF5
:1007C00008D0820E2B6EDE0EE82EFED72B2EFCD725
:1007D000392A040E3964F5D7060E1C6E190E1B6EED
:1007E0003A501D6E1E6A1DBE1E0613EC03F0CFD7D5
:1007F0000600EACF04F0E1CF05F0E2CF06F0D9CF52
:1008000007F0DACF08F0F3CF09F0F4CF0AF0F6CF13
:100810000BF0F7CF0CF0F8CF0DF0F5CF0EF0F2A201
:1008200003D000014870F2920EC0F5FF0DC0F8FF32
:100830000CC0F7FF0BC0F6FF0AC0F4FF09C0F3FFBE
:1008400008C0DAFF07C0D9FF06C0E2FF05C0E1FF1C
:1008500004C0EAFF03C0E9FF02C0FBFF01C0FAFFCA
:10086000110014C018F013C017F01550010DF3500B
:100870001326F4501422000E196E24D013C0D9FF91
:1008800014C0DAFFDF50166E0A0E165CD8B00AD01C
:1008900013C0D9FF14C0DAFFDF500F6E1950D8EC27
:1008A00004F00DD018C014F017C013F013C0D9FF16
:1008B00014C0DAFFDF500F6E1950D8EC04F0134A61
:1008C000142A192A030E1964D9D71200000E146EC7
:1008D000000E136E12501110D8B41CD0010E156EFC
:1008E00004D0D89011361236152A12AEFAD7D89005
:1008F0001336143611500F5C12501058D8A005D082
:1009000011500F5E1250105A1380D89012321132CB
:10091000152EEDD713C00FF014C010F012001950AF
:100920001810D8B418D0010E1A6E04D0D89018360A
:1009300019361A2A19AEFAD71850165C19501758DA
:10094000D8A004D01850165E1950175AD8901932F2
:1009500018321A2EF1D716C016F017C017F0120071
:10096000EE0EF66E090EF76E000EF86E00EE3BF01E
:1009700010EE0DF00900F5CFEEFFE550E150FAE181
:10098000000EF86E0001ADEF03F00F6E0F500A0A73
:10099000D8A409D09EA8FED70A0EAD6E9EA8FED799
:1009A0000D0EAD6E04D09EA8FED70FC0ADFF120095
:1009B000126E0F0E82120FC083FF12C010F0010ED4
:1009C000116E102A02D0D8901136102EFCD711507B
:1009D000FF0A82161200948C948EAC8EAC8AAC986E
:1009E000AB8EAB88B896AC94190EAF6E12000200B5
:1009F000010002050205000005020A00F28EF28CD9
:100A0000F288F18C1200F00E9516F00E941612007A
:020000040020DA
:08000000FFFFFFFFFFFFFFFF00
:020000040030CA
:0E000000FF071F1FFF8385FF0FC00FE00F409B
:00000001FF
