:040000000CEF00F011
:10000800FACF01F0FBCF02F0E9CF03F00EED00F0DC
:1000180059EF00F00600EACF04F0E1CF05F0E2CF97
:1000280006F0D9CF07F0DACF08F0F3CF09F0F4CF14
:100038000AF0F6CF0BF0F7CF0CF0F8CF0DF0F5CFB4
:100048000EF0F2920EC0F5FF0DC0F8FF0CC0F7FFDE
:100058000BC0F6FF0AC0F4FF09C0F3FF08C0DAFFBF
:1000680007C0D9FF06C0E2FF05C0E1FF04C0EAFFF0
:1000780003C0E9FF02C0FBFF01C0FAFF110093684B
:100088009268000E946E000E956E000E816E070E3B
:10009800B46E8AB002D0010E821A820E0F6EDE0E86
:1000A800E82EFED70F2EFCD7F4D7000143EF00F05F
:020000040020DA
:08000000FFFFFFFFFFFFFFFF00
:020000040030CA
:0E000000FF071F1FFF8385FF0FC00FE00F409B
:00000001FF
