:040000000CEF00F011
:10000800FACF01F0FBCF02F0E9CF03F06FED05F076
:10001800A5EF05F0010E00018D6F500E4C6402D063
:10002800070EACD2800E176E1C0E75EC06F0000E93
:100038000001866F95D2930E00018E6F000E0001AD
:10004800996F000E0001896F4C50D8B40AD04AC08D
:10005800D9FF4BC0DAFF040EDF6403D0010E0001A4
:10006800896F89C098F02FD0950E00018E6F030E0E
:100078000001996F000E00018A6F4C50D8B40AD065
:100088004AC0D9FF4BC0DAFF070EDF6403D0010E68
:1000980000018A6F8AC098F016D0970E00018E6F03
:1000A800060E0001996F000E0001986F0CD0000138
:1000B8008D51010AD8B4BFD7030AD8B4D5D7010ADD
:1000C800D8B4EBD751D100019951080DF35000086D
:1000D8004C240001A26F020E0001A25DD8B003D02B
:1000E800000E0001A26F020E0001A06F00019851DE
:1000F800D8B40FD00001A051010D00018E0EF324D9
:10010800D96E0001000EF420DA6E880EDF6E000151
:10011800A02BA2C04DF0070E4D16D8B402D0010E88
:1001280001D0000E4E6E0001A2C00FF0106A000E42
:10013800126E080E116E90EC04F00F504E24000160
:100148009A6F00019A51D8B445D00001986705D03C
:10015800000E0001816F040E04D0000E0001816FB3
:10016800030E0001806F80C08CF000019A510001DD
:100178008C5DD8A08CC09AF0000E00019F6F24D02F
:1001880000019F51000199C04DF04E6A4D26000EA6
:100198004E22010E4D26000E4E224D504A24D96E95
:1001A8004E504B20DA6E0001A051010D00018E0E59
:1001B800F324E16E0001000EF420E26EDFCFE7FFCA
:1001C8000001A02B00019F2B00019A5100019F5DA7
:1001D800D8A0D6D700019851D8B403D0080E000192
:1001E800A227000E02D11F0E0001A26533D0700EA7
:1001F80000018F6F000190510001911900019219BF
:10020800000193190001946F0001000E1B6E00019C
:100218008E0E1A6E070E1C6E0001000E1E6E000177
:10022800950E1D6EE2EC04F00001A16F0001A1051E
:10023800D8A458D1000E00019E6F090E0001886FE6
:100248000001000E00019D6F0001940E00019C6FDB
:10025800030E3BD00001A251070B00019E6F000165
:10026800A2C00FF0106A000E126E080E116E90EC0C
:1002780004F00F5000019F6F00019F51020F000111
:10028800A06F0001A039F00B00019E2500018F6FBF
:10029800000EF36A00019E63F32AF3CF4DF04D5030
:1002A8000001A0250001886F0001A051010D000187
:1002B8008E0EF32400019C6F0001000EF420000153
:1002C8009D6F0001A0510008090F00019B6F9EC09F
:1002D8008BF000018B39F00B00019E25156E1A0E6C
:1002E800A5EC06F00001000E3F6E00018E0E3E6E7A
:1002F80088C040F000019DC042F000019CC041F060
:100308000001000E446E00019B0E436E0001000EBA
:10031800466E00019E0E456E8BC047F0000E486E7B
:10032800D2EC05F00001A16F0001A151030AD8A485
:1003380053D01C0E67EC06F00001A16F0001A1ABC1
:1003480002D0030E1BD10001A1511F0B0001976FB2
:100358000001976703D0200E0001976F00019751A5
:100368000001A25DD8A002D0060E08D197C0A2F065
:100378000001A205070B00019F6F000EF36A000140
:100388009F63F32AF3CF4DF00001A2C00FF0106A6B
:10039800000E126E080E116E90EC04F00F504D24F2
:1003A8004E6E4E280001A06F9FC04DF0010E4E6E9C
:1003B8004D2A02D0D8904E364D2EFCD70001A051C0
:1003C800010D00018E0EF324D96E0001000EF420F9
:1003D800DA6E4E50DF120FD00001A105D8A482D0EA
:1003E8001F0E0001A26504D0010E0001876F03D023
:1003F800200E0001A26F00018751D8B4F4D6000185
:100408009051880AD8B405D0000E0001836F020EFF
:1004180004D0000E0001836F030E0001826F82C0BA
:10042800A0F000019051880AD8B405D0000E000150
:10043800856F040E04D0000E0001856F030E0001C5
:10044800846F84C09AF0000E00019F6F24D00001D1
:10045800A051010D00018E0EF324D96E0001000E8B
:10046800F420DA6E00019F51000199C04DF04E6AE8
:100478004D26000E4E22010E4D26000E4E224D50E6
:100488004A24E16E4E504B20E26EDFCFE7FF0001B9
:10049800A02B00019F2B00019A5100019F5DD8A05D
:1004A800D6D700019B51030AD8A404D000019E515D
:1004B800D8B402D0020E62D000019DC01BF000012A
:1004C8009CC01AF0010E1C6E0001000E1E6E000189
:1004D800900E1D6EE2EC04F00001A16F0001A10571
:1004E800D8B403D00001A15149D0000120EE01F099
:1004F80000019C51D92600019D51DA22DF500001EC
:1005080020EE90F0DF6210D0000120EE02F0000132
:100518009C51D92600019D51DA22DF504D6E000111
:1005280091514D18D8B402D0080E28D09CC0D9FFDC
:100538009DC0DAFFDF504D6E4DA403D000018D2B16
:100548000FD0010E0001866F9CC0D9FF9DC0DAFF55
:1005580010EE0BF04A50E1264B50E222DFCFE7FFC6
:1005680000018651D8B4A3D500018D51030DF3289D
:100578004AC0D9FF4BC0DAFFDF6E010E1200386E99
:100588002B502A10D8A405D0000E376E000E366EF8
:1005980009D02AC0D9FF2BC0DAFFDF502E6E2E50AB
:1005A800366E376A36C034F02C38F00B3424356E8A
:1005B800000E156E020EA5EC06F07F0E156E080EE5
:1005C800A5EC06F0800E176E140E8EEC06F025C012
:1005D80015F024C017F023C016F0120EF0EC05F049
:1005E80035C015F01A0EA5EC06F038C015F0020E4D
:1005F800A5EC06F038500C0AD8A405D0800E176E6A
:100608001A0E8EEC06F0070E336ED00E326E080E00
:1006180067EC06F03D6E3D5022140009D8A40BD0BB
:100628003DB007D03206D8A0330633503210D8A4D4
:10063800EED7040EB5D00C0E67EC06F03B6E3BC04F
:100648002EF0130E2E16D8B402D0020EA9D02750C1
:100658002610D8B434D029502810D8B430D0140E6D
:1006680067EC06F03D6E28C0D9FF29C0DAFFDF50DD
:100678002E6E3D502E5CD8B002D0050E91D028C009
:10068800D9FF29C0DAFF3DC0DFFF3DC015F027C004
:1006980017F026C016F02CC018F0120ED5EC03F097
:1006A800180E67EC06F0070B3C6E2B502A10D8B4D6
:1006B80006D02AC0D9FF2BC0DAFF3CC0DFFF3BA61B
:1006C80002D0030E6DD027502610D8B468D0295018
:1006D8002810D8B464D02D50D8B461D0010E28C0E9
:1006E800D9FF29C0DAFFDF6206D03C50040AD8A43B
:1006F80002D0090E55D028C0D9FF29C0DAFF010E53
:10070800DF644BD03C50D8A448D027C01BF026C08B
:100718001AF028C0D9FF29C0DAFFDF50FE0F1C6E7F
:10072800000E1E6E390E1D6EE2EC04F03D6E3D04A7
:10073800D8B402D03D5034D0FE0E2E6EFF0E2F6E70
:1007480028C0D9FF29C0DAFFDF50306E316A2E5039
:1007580030262F50312230502624D96E3150272090
:10076800DA6E3950DF6219D0FF0E2E6EFF0E2F6E33
:1007780028C0D9FF29C0DAFFDF50306E316A2E5009
:1007880030262F50312230502624D96E3150272060
:10079800DA6EDF503A18D8B402D0080E01D0010E34
:1007A80012001B6E156601D05ED01B507E0B8009AF
:1007B8001E6E000E206E809815061E5038EC04F050
:1007C80041D0206632D01850D8B42FD0000E1D6EFC
:1007D80018C01FF00DD01FC019F0010E1A6E192A8B
:1007E80002D0D8901A36192EFCD71A501D121F2A7B
:1007F800070E1F64F0D71E5038EC04F01C6E1C5016
:100808001D14196E2050010DF3501624D96EF450A2
:100818001720DA6EDF501A6E1D50FF0A1A141910CD
:1008280016C0D9FF17C0DAFF0BD02050010DF350C6
:100838001624D96EF4501720DA6E1E5038EC04F0E6
:10084800DF6E202A1550205CD8A0BBD72050010DA0
:10085800F3501624D96EF4501720DA6E000E38ECD7
:1008680004F0DF6E80881200146E000E136E6304AD
:10087800D8B404D06350030AD8A426D0000E106E52
:10088800000E0F6E1050800A800F080ED8B40F5C4F
:10089800D8B040D014AE02D0808C01D0809C800E9D
:1008A800801A80BA1380030EE82EFED700F0800E5F
:1008B800801AD8901336D8901436030EE82EFED737
:1008C80000F00F4A102ADED7000E126E000E116ECD
:1008D8001250800A800F080ED8B4115CD8B01AD014
:1008E80080BA1380800E801A14AE02D0808C01D09A
:1008F800809C030EE82EFED700F0800E801AD89058
:100908001336D8901436030EE82EFED700F0114A9D
:10091800122ADED713501200000E146E1250800AED
:10092800F36E800EF35C000ED8B4115CD8B006D01C
:10093800116C121ED8B0122A010E146E1050800AC3
:10094800F36E800EF35C000ED8B40F5CD8B006D0FE
:100958000F6C101ED8B0102A010E141A000E166E55
:10096800000E156E12501110D8B41CD0010E136E63
:1009780004D0D89011361236132A12AEFAD7D8906E
:100988001536163611500F5C12501058D8A005D0E5
:1009980011500F5E1250105A1580D8901232113231
:1009A800132EEDD71450D8B404D0156C161ED8B039
:1009B800162A15C00FF016C010F01200000E156EA2
:1009C800020EA5EC06F0040E156E0A0EA5EC06F054
:1009D800800E176E140E8EEC06F01CC015F01BC0AE
:1009E80017F01AC016F0120EF0EC05F0030E156E93
:1009F800020EA5EC06F0130E206E880E1F6E0A0E6E
:100A080067EC06F0216E21B409D01F06D8A0200695
:100A180020501F10D8A4F3D7040E18D0000E156E5E
:100A2800020EA5EC06F0440E67EC06F01DC0D9FFD7
:100A38001EC0DAFFDF6E20EE01F01D50D9261E50D1
:100A4800DA22420E67EC06F0DF6E010E12004F6EDE
:100A58004B504A10D8B40AD04CC0D9FF4DC0DAFF69
:100A6800DF504E6E020E4E5CD8B002D0050E32D06A
:100A7800800E176E1C0E75EC06F0070E516E000EF8
:100A88003F6E4F0E3E6E010E406E4BC042F04AC0A4
:100A980041F04DC044F04CC043F0000E466E510E7C
:100AA800456E000E476E000E486ED2EC05F0506E93
:100AB8005004D8B402D050500DD0020E4CC0D9FF0B
:100AC8004DC0DAFFDF6203D05150D8B402D0020E15
:100AD80001D0010E12000600EACF04F0E1CF05F0C4
:100AE800E2CF06F0D9CF07F0DACF08F0F3CF09F05C
:100AF800F4CF0AF0F6CF0BF0F7CF0CF0F8CF0DF0EB
:100B0800F5CF0EF058EC06F00EC0F5FF0DC0F8FF5B
:100B18000CC0F7FF0BC0F6FF0AC0F4FF09C0F3FFD3
:100B280008C0DAFF07C0D9FF06C0E2FF05C0E1FF31
:100B380004C0EAFF03C0E9FF02C0FBFF01C0FAFFDF
:100B4800110000EEA3F01C0EEE6AE806FDE1626AF1
:100B5800616A600EF66E0D0EF76E000EF86E00EE0E
:100B6800BFF010EE10F00900F5CFEEFFE550E150B0
:100B7800FAE17A0EF66E0D0EF76E000EF86E00EEC4
:100B88005BF010EE06F00900F5CFEEFFE550E150FE
:100B9800FAE1000EF86E000149EF06F0300E496EDA
:100BA80049C022F03FC024F03EC023F040C025F0E9
:100BB80042C027F041C026F044C029F043C028F0C5
:100BC80046C02BF045C02AF047C02CF048C02DF095
:100BD8000C0EC3EC02F01200186E809818507E0BB1
:100BE80038EC04F0000E196E0CD01950010DF350BA
:100BF8001624D96EF4501720DA6EDF5038EC04F062
:100C0800192A1550195CD8A0F0D780881200020E56
:100C18005A6E000E536E570E526E000E556E5A0ED7
:100C2800546E82EC06F0596E010E566E5904D8B413
:100C380006D05950030AD8B402D0000E566E56504A
:100C480012000F6E0FC063F03F0E9216928A0F507B
:100C5800020AD8B404D00F50030AD8A402D0808E58
:100C680001D0809E12000001000E4B6E0001B30EF1
:100C78004A6E000E4C6E0EEC00F04F6E4F04D8A476
:100C880002D0010E01D0000E12009AEC06F0000E00
:100C980025EC06F0B8EC06F00BEC06F00009D8A439
:100CA800FBD737EC06F0F8D79EAA0CD00001A30EAC
:100CB8006124D96E0001000E6220DA6EAECFDFFF2C
:100CC800614A622A1200156E809815507E0B8009C1
:100CD80038EC04F0000E38EC04F0166E80881650DC
:100CE8001200196E195067EC06F0186E1750FF0ABB
:100CF8001814156E1950A5EC06F0120053C04BF0ED
:100D080052C04AF055C04DF054C04CF0260E2BECA2
:100D180005F01200196E195067EC06F0186E18509D
:100D28001710156E1950A5EC06F0120093829384E3
:100D3800AC8EAC8AAC98AB8EAB88AC94190EAF6E07
:100D48001200166E809816507E0B38EC04F0155081
:100D580038EC04F08088120001020304040000004B
:100D6800000000000000000092988088929680960B
:080D78001200FFFFFFFFFFFF67
:107E16000040496E7465726E616C206572726F7295
:107E260020696E2074686520636F64652E20536830
:107E36006F756C64206E6F742068617070656E2E4D
:107E4600005049434320636F6D706C69616E742006
:107E5600776974682049534F2F494543203138309C
:107E6600393220284E464329005049434320636F48
:107E76006D706C69616E7420776974682049534F20
:107E86002F4945432031343434332D340053414B8C
:107E960020696E646963617465732055494420697D
:107EA60073206E6F7420636F6D706C6574652E0041
:107EB60041204D4946415245205049434320726571
:107EC60073706F6E6465642077697468204E414BE9
:107ED6002E004D494641524520556C7472616C69BD
:107EE600676874206F7220556C7472616C6967687C
:107EF600742043004D4946415245204D696E692C18
:107F06002033323020756E7369676E65642063684E
:107F1600617273004120627566666572206973201E
:107F26006E6F742062696720656E6F7567682E00D4
:107F3600546865204352435F4120646F6573206E29
:107F46006F74206D617463682E0054696D656F757A
:107F56007420696E20636F6D6D756E6963617469F7
:107F66006F6E2E004572726F7220696E20636F6DA0
:107F76006D756E69636174696F6E2E00436F6C6C0C
:107F8600697373696F6E2064657465637465642EC6
:107F960000496E76616C696420617267756D656E05
:107FA600742E004D494641524520544E5033585880
:107FB6005800556E6B6E6F776E206572726F720029
:107FC600556E6B6E6F776E2074797065004D4946FD
:107FD60041524520506C7573004D4946415245202B
:107FE600314B42004D494641524520344B420053E5
:0A7FF6007563636573732E000000CD
:020000040020DA
:08000000FFFFFFFFFFFFFFFF00
:020000040030CA
:0E000000FF071F1FFF8385FF0FC00FE00F409B
:00000001FF
