:020000001028C6
:10000800FE00030EF1000408F2000A08F300831250
:1000180003137F08F4006A2D1128F701F8018313F0
:10002800B2308400C2304B2683160313DD25A000AE
:10003800DE25A100DF25A200E025A300E125A4001C
:10004800E225A500E325A600E425A700E525A800EC
:10005800E625A900E725AA00E825AB00E925AC00BC
:10006800EA25AD00EB25AE00EC25AF00ED25B0008C
:10007800EE25B100831203135326DF005426E00057
:100088005526E1005626E2005726E3005826E400EC
:100098008301512B83120313BB000230B1003108D6
:1000A800B800BA01B70167281230B1003108BA00A8
:1000B800103063287730B1003108BA003030B10011
:1000C8003108B7006F283B080C3A03195E28023A3A
:1000D800031958286F283A088038B1003108A6005B
:1000E8000230C925803083120313B1003108A900FA
:1000F80004301026803083120313B1003108A900A0
:100108000A30202683120313A6010130C925831261
:100118000313BC01BD012E08B100B20132083D0233
:10012800031D982831083C020318AF283C082D0706
:10013800B1003108840083130008B2003208A60019
:100148000930C925013083120313BC070318BD0AFF
:100158000030BD078F283B08B1003108A6000130E8
:10016800C925831203133B080C3A031DC1288030AC
:10017800B1003108A9000D302026FF308312031387
:10018800BC00FF30BD0004309C2583120313B1006E
:100198003108BE000130BC020030031CBD03BD02A3
:1001A8003D083C04031D3E18DD283E0837050319A9
:1001B800C7288030B1003108A9000D3010268312FD
:1001C80003133D083C040319812906309C251B397B
:1001D800031D7B2983120313B8013A083E05B100B9
:1001E800311CF828B801B80A3B080C3A031D8129CC
:1001F8000A309C2583120313B1003108BE000C306D
:100208009C25073983120313B1003108B900390856
:10021800031932293E08B100B2010310B10DB20D25
:100228000310B10DB20D0310B10DB20D390831072D
:10023800B3000030031801303207B4003308F83E29
:10024800B50034080318013EFF3EB60030088400AC
:10025800350883138000840A360845293E08B10012
:10026800B2010310B10DB20D0310B10DB20D0310A0
:10027800B10DB20D30088400310883138000840A60
:1002880032088000BE08031D4B29BE01BE0A11308A
:100298003E02031C53291030B1003108BE00BC01D6
:1002A800BD013E08B100B20132083D02031D5E29BE
:1002B80031083C020318742909309C258312031362
:1002C800B1003C082F07B2003208840031088313BC
:1002D80080000130BC070318BD0A0030BD0755294E
:1002E8003C082F07B10031088400800181290230C1
:1002F80083120313B1003108B800380808008312CC
:100308000313B8002C30AE002E08B300013083125E
:100318000313B807FF3038078400A223AE002E0865
:10032800B900B908031908003908253A03199F29A3
:10033800390885258A2983120313B101B1293308A5
:10034800840083130008AE002E08B9000230AE0006
:100358002E08B307390885258A290130831203132B
:10036800B807FF3038078400A223B900003A031900
:100378003C2A633A0319A329073A0319C7290D3AF6
:100388000319C729AE298312031333088400831382
:100398000008B400840A0008B5000230AE002E0838
:1003A800B307B51FE0290330AE002E08B104B40925
:1003B800B509B40A0319B50AB901B90A3908053AE1
:1003C8000319FF293908AE002E07013E8400A22335
:1003D800AF00A223B00030083502031DF5292F080D
:1003E8003402031CFF290130AE002E08B907390872
:1003F800053A031DE629310803390319052A2D306A
:100408008525831203133908AE002E08B200FF3089
:1004180083120313AE002E08B2073208FF3A0319FD
:100428008A290A30A7000030A8003208AE002E073B
:10043800013E8400A223A000A223A1003508A30145
:10044800A3073408A201A207BE24831203132108BC
:10045800AA01AA072008A901A907FE2483120313E9
:100468002708303EAF002F08B900390885250B2A28
:10047800080083120313C900C401A6010D30C92561
:10048800933083120313BF00490884003F08831385
:1004980080002030BF00490A84003F0880000830EF
:1004A800BF003F08A900083010268312031349082B
:1004B800BF003F08AD000230C0004008AE00490848
:1004C800C1004108AF004530C2004208B0000C30FE
:1004D8004E2083120313C3004308C700C708031D37
:1004E800982AC8010430480203188C2A480849078A
:1004F800BF003F08840083130008C0004008C406FA
:100508000130BF003F08C80704304802031C7A2A9C
:100518004908043E84008313000844060319982AF6
:100528000230BF003F08C7004708080083120313C2
:10053800CE009330BF003F08C4007030BF003F08B2
:10054800C5000230BF003F08D2000730520203182E
:10055800C32A4E08840083130008BF005208443E93
:1005680084003F0880000130BF003F08CE070130FB
:10057800BF003F08D20707305202031CAD2A0730DC
:10058800BF003F08AD004B30C0004008AE0044300B
:10059800F622443083120313BF003F08AD00093030
:1005A800C0004008AE004430C1004108AF005030E0
:1005B800C2004208B0000C304E2083120313C3005F
:1005C8004308CD00CD08031DF32A18305006510406
:1005D800031DF32A4408BF003F08CF00F42ACF01C7
:1005E8004F08080083120313B1000430AF002F082E
:1005F800A90005301026803083120313AF002F089E
:10060800A9000A30202683120313B2012D083202F2
:100618000318222B3108840083130008AF002F0829
:10062800A6000930C925013083120313AF002F0833
:10063800B1070130AF002F08B2070A2B0330AF0013
:100648002F08A6000130C925FF3083120313AF001D
:100658002F08B20005309C2583120313AF002F0822
:10066800B0000130B2023208031D30193C2B2E2B8A
:1006780022309C2583120313AF002E0884002F0814
:100688008313800021309C2583120313AF002E0AA8
:1006980084002F088313800008002E26EF253824B5
:1006A8000B308321413083215D300026003A031945
:1006B800962B831203135E08AD01AD075D08AC01EC
:1006C800AC07273083215630B325003A0319952B00
:1006D8003830832183120313DC0105305C020318D0
:1006E8008C2B5C08563E840083130008D300D40189
:1006F8005308AC005408AD00443083210130831204
:100708000313D3005308DC0705305C02031C752B68
:100718002530832156309A2283120313D3005308BD
:10072800D5003425823083120313D400DD30D30082
:10073800D30B9C2BD40B9C2BA12B562B03308A005C
:100748000408840A82070034013400340A3400346F
:1007580064340034E83403341034273450347234A9
:100768006F346734723461346D34613420346534E5
:100778006D342034663475346E34633469346F34C0
:100788006E3461346D3465346E3474346F342134AE
:100798000A3400345434693470346F342034643487
:1007A800653420345434613467343A342034253481
:1007B80064340A34003443346F346434693467343D
:1007C8006F343A34203400342E340A34003425345B
:1007D8006334003431340034323400348312031368
:1007E800A000A201A3012308803AFF0080307F0205
:1007F800031D002C083022020318342C8312031323
:10080800A01F082C06170C2CBF30F50075088605AC
:100818007F30F50075088605861A21140330F50027
:10082800F50B142C8312031386170310A10D031064
:10083800A00D0330F500F50B1F2C013083120313B4
:10084800A2070318A30A0030A3072308803AFF0071
:1008580080307F02031D322C08302202031C022C38
:100868008312031321080800FE3083120313AD001E
:100878002D08831603138605F73083120313AD0082
:100888002D08831603138605831203130614861591
:100898002E2639268D3083120313AD002D08A600AD
:1008A8002A30C9253E3083120313AD002D08A60057
:1008B8002B30C9251E3083120313AD002D08A60066
:1008C8002D30C92583120313A6012C30C9254030C9
:1008D80083120313AD002D08A6001530C9253D303D
:1008E80083120313AD002D08A6001130C925422636
:1008F800080083120313C6000730C0004008A60092
:100908000D30C92547308321831203134608C000E0
:100918003F0884004008831380003F08C000400857
:10092800AD00AE01AE0A3F08C1004108AF00483033
:10093800C2004208B0000C304E2083120313C300DB
:100948004308C7000830C4000030C500C708031DAD
:10095800B22C1030480649040319B82CC401C5014B
:100968000230C0004008C7004930832183120313B6
:100978004708080083120313A501A60121082004D3
:100988000319F72CA401A40AA11BD62C01300310CB
:10099800A00DA10DFF3E031DCB2C0130F5007508FD
:1009A800A407C82C01300310A50DA60DFF3E031D9A
:1009B800D72C21082302031DE32C20082202031C44
:1009C800EC2C2008A2022108031CA303A30225146F
:1009D80001300310A10CA00CFF3E031DED2C0130CB
:1009E800A402031DD62C2608A101A1072508A001F1
:1009F800A0070800831203132808270403192D2DC4
:100A0800AB01AB0AA81B142D01300310A70DA80DCC
:100A1800FF3E031D092D0130F6007608AB07062DB1
:100A280028082A02031D1A2D27082902031C222D33
:100A38002708A9022808031CAA03AA0201300310E8
:100A4800A80CA70CFF3E031D232D0130AB02031D8C
:100A5800142D2A08A801A8072908A701A707080034
:100A6800503083120313BF003F08C300C401023093
:100A7800BF003F08AD004530C0004008AE0043301D
:100A8800F622803083120313BF003F08A900083004
:100A98001026433083120313BF003F08AD00043013
:100AA800C0004008AE004330C1004108AF004730E5
:100AB800C2004208B0000C304E20083083120313E5
:100AC800BF003F08A9000830102608008C1E7A2DA8
:100AD8001A08F0007708B23E84007008831380007B
:100AE8000130F7070318F80A0030F8077408FF0008
:100AF80073088A0072088400710E8300FE0E7E0E51
:100B08000900F50075080A3A031D952D8312031391
:100B18000C1E8A2D0A3099000C1E902D0D3099005C
:100B28000800831203130C1E952D75089900080000
:100B380083120313A400FE30F60076088605240805
:100B4800F60076077E398038F2230030F223F6006B
:100B5800760883120313A5000614250808008312DB
:100B68000313CC004C083D2283120313CA004A0821
:100B7800CB004C08053E840083138001CB08031D7D
:100B8800C72D013008000030080083120313A800A5
:100B9800FE30A700270886052808A70027077E3902
:100BA800F223831203132608F22383120313061475
:100BB80008004D346934633472346F3463346F34ED
:100BC8006E34743472346F346C3461346E3464341B
:100BD8006F3473340034831603138614061598177C
:100BE80098161812831203139817181683160313EE
:100BF800181119309900080083120313CB004B0811
:100C0800CA004A08BF0026307D240038031D0E2E76
:100C1800013008000030080083120313AC002909D2
:100C2800AA002C089C25831203132A05AB002B0865
:100C3800A6002C08C925080083120313AB002B0853
:100C48009C25831203132904AA002A08A6002B084E
:100C5800C92508003F30F50075088316031386057B
:100C6800861683120313861708000F3083120313A6
:100C7800A9002908A6000130C925080003308312FD
:100C88000313AC002C08A9001430202608006400C7
:100C98008001840A04060319003404064C2EFF342C
:0A0CA800FF34FF34FF34FF34FF3443
:02400E00D8FFD9
:00000001FF
