:020000001028C6
:10000800FE00030EF1000408F2000A08F300831250
:1000180003137F08F400252F1128F601F701831335
:10002800203084003C303327D526BC00D626BD00BE
:10003800D726BE00D826BF00D926C000DA26C100C0
:10004800DB26C200DC26C300DD26C400DE26C50090
:10005800DF26C600E026C700E126C800E226C90060
:10006800E326CA00E426CB00E526CC00E626CD0030
:10007800E726CE00E826CF00E926D000EA26D10000
:0400880083013B2F86
:10020000FF1B0A2983137F1883170008840A031928
:10021000FF0A08007F087F398A000408840A03194E
:10022000FF0A8200013400340A340034643400349C
:10023000E8340334103427340134003410340034EB
:1002400000340134003410344034433461347234A7
:100250006434203464346934643420346E346F344C
:100260007434203472346534733470346F346E34C3
:100270006434203474346F3420343034783434347B
:10028000303420346134663474346534723420344C
:10029000483441344C345434203463346F346D3436
:1002A0006D3461346E3464342E342034413472340D
:1002B0006534203479346F347534203473347534B4
:1002C00072346534203469347434203469347334BE
:1002D0002034613420345534493444342034633478
:1002E000683461346E3467346534613462346C343C
:1002F000653420346F346E3465343F340034533405
:100300006534633474346F347234203442346C3462
:100310006F3463346B342034203420343034203450
:1003200020343134203420343234203420343334F7
:1003300020342034203434342034203435342034F4
:1003400020343634203420343734203420342034E0
:1003500038342034203439342034313430342034AB
:100360003134313420342034313432342034313497
:10037000333420343134343420343134353420347F
:100380002034413463346334653473347334423419
:100390006934743473340A3400344E346F34203486
:1003A00063346134723464342034773461347334A8
:1003B0002034703472346534763469346F34753473
:1003C00073346C3479342034733465346C3465346C
:1003D00063347434653464342C34203461346E34C2
:1003E000643420346E346F346E34653420346134B8
:1003F00072346534203461347634613469346C3459
:10040000613462346C3465342E34203446346134C3
:1004100069346C3465346434203474346F3420347B
:1004200073346534743420345534493444342E34B0
:1004300000344534723472346F3472342034693489
:100440006E34203463346F346D346D3475346E34EF
:10045000693463346134743469346F346E342034F5
:1004600061347434203463346F346D346D346134EA
:100470006E346434203430347834343433342C34AF
:100480002034613466347434653472342034733407
:10049000753463346334653473347334663475345B
:1004A0006C346C3479342034653478346534633496
:1004B0007534743469346E346734203430347834AD
:1004C0003434303400344634613469346C34653447
:1004D0006434203474346F342034613475347434AB
:1004E000683465346E34743469346334613474341C
:1004F0006534203474346F3420346334613472349E
:100500006434203466346F34723420347234653489
:100510006134643469346E3467342C342034633489
:100520006F3475346C34643420346E346F34743406
:1005300020347334653474342034553449344434AD
:100540003A3420340034443475346D3470346934B2
:100550006E34673420346D3465346D346F347234E6
:100560007934203463346F346E34743465346E34CB
:100570007434733420346E346F34743420346934FA
:100580006D3470346C3465346D3465346E34743469
:1005900065346434203466346F34723420347434F7
:1005A000683461347434203450344934433443342F
:1005B000203474347934703465342E34003441344A
:1005C00072346534203479346F34753420347334A4
:1005D000753472346534203479346F347534723440
:1005E00020344B344534593420344134203466347B
:1005F0006F347234203473346534633474346F343C
:10060000723420343034203469347334203430343C
:1006100078344634463446344634463446344634D8
:10062000463446344634463446343F3400344E343F
:1006300065347734203455344934443420346234BA
:1006400075346634663465347234203465346D3400
:100650007034743479342C342034733469347A34FB
:100660006534203430342C3420346F3472342034E8
:10067000733469347A34653420343E342034313470
:100680003534203467346934763465346E3400345C
:1006900049346E347434653472346E3461346C347D
:1006A00020346534723472346F34723420346934D7
:1006B0006E342034743468346534203463346F34D9
:1006C000643465342E342034533468346F347534D4
:1006D0006C34643420346E346F34743420346834B1
:1006E00061347034703465346E342E3400344734E1
:1006F0006F3474342034623461346434203472349E
:100700006534733470346F346E347334653420342C
:100710006F346E3420346234613463346B34643447
:100720006F346F34723420343034783434343034AD
:10073000203463346F346D346D3461346E3464341A
:100740003A342034003447346F3474342034623403
:1007500061346434203472346534733470346F34EB
:100760006E347334653420346F346E342034623424
:10077000613463346B3464346F346F3472342034D6
:100780003034783434343334203463346F346D345B
:100790006D3461346E3464343A342034003450346F
:1007A000493443344334203463346F346D3470340B
:1007B0006C34693461346E34743420347734693481
:1007C000743468342034493453344F342F3449342A
:1007D00045344334203431343834303439343234CD
:1007E000203428344E344634433429340034203401
:1007F00049346E3476346534723474346534643418
:100800002034613463346334653473347334203496
:100810006234693474347334203464346934643435
:1008200020346E346F34743420346D346134743455
:1008300063346834213420340034413463347434F4
:10084000693476346134743469346E3467342034F6
:100850007434683465342034553449344434203495
:100860006234613463346B3464346F346F347234A3
:1008700020346634613469346C34653464342E3425
:100880000A3400345034493443344334203463341C
:100890006F346D3470346C34693461346E34743454
:1008A0002034773469347434683420344934533410
:1008B0004F342F34493445344334203431343434C4
:1008C0003434343433342D343434003453344134F8
:1008D0004B34203469346E346434693463346134A5
:1008E00074346534733420345534493444342034FA
:1008F0006934733420346E346F3474342034633488
:100900006F346D3470346C346534743465342E3423
:100910000034413420344D34493446344134523467
:100920004534203450344934433443342034723411
:100930006534733470346F346E34643465346434C5
:100940002034773469347434683420344E3441347C
:100950004B342E3400344D3449344634413452340F
:100960004534203455346C347434723461346C340E
:10097000693467346834743420346F34723420340A
:1009800055346C347434723461346C346934673483
:10099000683474342034433400344D34493446349C
:1009A00041345234453420344D3469346E34693422
:1009B0002C342034333432343034203475346E34B3
:1009C0007334693467346E3465346434203463348A
:1009D00068346134723473340034503443344434F2
:1009E0005F34413475347434683465346E3474342F
:1009F00069346334613474346534283429342034E0
:100A00006634613469346C34653464343A34203487
:100A100000344134203462347534663466346534CD
:100A2000723420346934733420346E346F34743447
:100A30002034623469346734203465346E346F3462
:100A40007534673468342E34003454346834653473
:100A500020344334523443345F34413420346434DA
:100A60006F346534733420346E346F34743420340E
:100A70006D3461347434633468342E340034543447
:100A800069346D3465346F347534743420346934AA
:100A90006E34203463346F346D346D3475346E3499
:100AA000693463346134743469346F346E342E3491
:100AB00000344D34493446344134523445345F3483
:100AC000573472346934743465342834293420340A
:100AD0006634613469346C34653464343A342034B7
:100AE00000344534723472346F34723420346934D3
:100AF0006E34203463346F346D346D3475346E3439
:100B0000693463346134743469346F346E342E3430
:100B100000344D34493446344134523445345F3422
:100B200052346534613464342834293420346634D2
:100B3000613469346C34653464343A3420340034BC
:100B400043346F346C346C346934733473346934C3
:100B50006F346E34203464346534743465346334F3
:100B60007434653464342E34003449346E3476344D
:100B700061346C34693464342034613472346734E1
:100B800075346D3465346E3474342E34003430343E
:100B90003134323433343434353436343734383411
:100BA0003934613462346334643465346634003417
:100BB0005034613467346534203420343034203488
:100BC000203431342034203432342034203433344F
:100BD00000342034763461346C3469346434203425
:100BE000623469347434733429340D340A34003473
:100BF0004D3449344634413452344534203454342D
:100C00004E34503433345834583458340034553416
:100C10006E346B346E346F3477346E342034653414
:100C2000723472346F347234003445347234723436
:100C30006F34723420346E3461346D3465343A3438
:100C40002034003455346E346B346E346F34773462
:100C50006E34203474347934703465340034503454
:100C60004934433443342034743479347034653433
:100C70003A34203400344D3449344634413452340B
:100C80004534203450346C3475347334003420349B
:100C9000563461346C34753465343D3430347834D2
:100CA000253478340034433461347234643420346D
:100CB0005534493444343A340A3400344D344934D8
:100CC0004634413452344534203431344B34423488
:100CD00000344D34493446344134523445342034A0
:100CE00034344B344234003420344134643472346C
:100CF0003D3430347834253478340034533475340A
:100D0000633463346534733473342E3400342034E4
:100D1000203420342034203420342034003428344B
:100D20006E3475346C346C342934003425347334A7
:100D30000A340034253478340A34003420345B34E7
:100D40002034003420345D342034003425346434BD
:100D5000203400342034283400342034303400343B
:100D6000253464340034253473340034831203137F
:100D7000D2005208F5007508F8003F30F5007508FC
:100D80008316031385058516831203135208023A4E
:100D90000319CE2E5208033A031DD02E85170800E2
:100DA0007F30F500750885050800013402340334EE
:100DB000043404340034003400340034003400348B
:100DC00000340034003400340034FF34FF34FF3486
:100DD000FF34FF34FF34EF30F5007508831603133A
:100DE0008505831203130516F730F5007508831681
:100DF00003138505F730F500750883120313850585
:100E00000800831203138C1E08001A08F0007608ED
:100E1000203E84007008831380000130F607031819
:100E2000F70A0030F7070800831603138614061527
:100E3000981798161812831203139817181683160A
:100E40000313181119309900080001277408831240
:100E50000313FF0073088A0072088400710E830078
:100E6000FE0E7E0E090064008001840A0406031948
:100E700000340406342F14270030B626EB263F2F0B
:02400E00D8FFD9
:00000001FF
