:040000005EEF04F0BB
:100600000001000A006400E80310272564000000D0
:10061000000E146E0F0E136E89D01C50250AD8B42C
:1006200004D01C5058EC04F081D0000E156E0DC0A3
:10063000F6FF0EC0F7FF0D4A0E2A0800F5CF1CF09A
:100640001C50000AD8B47DD0640AD8B403D00D0A77
:10065000D8A46CD013C0D9FF14C0DAFFDECF17F0D6
:10066000DDCF18F0020E1326000E14221850800A57
:10067000F36E800EF35C000ED8B4175CD8B006D0D1
:10068000030E1512176C181ED8B0182A010E1C6E16
:100690001C50050AD8B416D01C50020D010EF324CC
:1006A000F66E060EF420F76E0900F5CF11F0090082
:1006B000F5CF12F01150175C12501858D8A002D084
:1006C0001C2AE6D715C011F0030E1116D8B403D0BA
:1006D0002D0E58EC04F01CC016F024D01650020D5C
:1006E000010EF324F66E060EF420F76E0900F5CF26
:1006F00003F00A00F5CF04F017C001F018C002F0B3
:10070000CBEC03F001C008F002C009F0000E0B6E44
:100710000A0E0A6E18EC04F00850300F1C6E1C50C4
:1007200058EC04F016061628D8A4D8D70DC0F6FF4A
:100730000EC0F7FF0D4A0E2A0800F5CF1CF01C660C
:100740006CD7120039EC04F045EC04F0060E0E6E86
:100750000B0E0D6E000EF4EC03F001C00FF002C0A2
:1007600010F008EC03F051EC04F0000E1F6E000EC8
:100770001E6E1F50800A800F050ED8B41E5CD8B0C4
:10078000E5D7820E1D6EDE0EE82EFED71D2EFCD79D
:100790001E4A1F2AEED7000E066E000E056E04508C
:1007A0000310D8B41CD0010E076E04D0D8900336C5
:1007B0000436072A04AEFAD7D89005360636035019
:1007C000015C04500258D8A005D00350015E0450CB
:1007D000025A0580D89004320332072EEDD705C0A7
:1007E00001F006C002F01200076E000EC26E075044
:1007F000C212060EE82EFED700D0C280C282C2B25C
:10080000FED7C2801A0E036EF80EE82EFED7032E16
:10081000FCD700D0C450046E036AC3500324056E95
:10082000000E0420066E05C001F006C002F01200A2
:100830000B500A10D8B418D0010E0C6E04D0D8900A
:100840000A360B360C2A0BAEFAD70A50085C0B504E
:100850000958D8A004D00A50085E0B50095AD89005
:100860000B320A320C2EF1D708C008F009C009F08B
:100870001200948C948EAC8EAC8AAC98AB8EAB8804
:10088000B896AC94190EAF6E1200C08E000EC16EF9
:10089000C050C70B2809C06EC050F80B0209C06ECB
:1008A00012000A0E58EC04F00D0E58EC04F0120081
:1008B000016E9EA8FED701C0ADFF1200000EF86EBB
:0608C0000001A2EF03F0AD
:020000040020DA
:08000000FFFFFFFFFFFFFFFF00
:020000040030CA
:0E000000FF071F1FFF8385FF0FC00FE00F409B
:00000001FF
