:04000000C3EF3FF01B
:107F8200D58E12000001D2EF3FF0FC0ED76E170E15
:107F9200D66E1200D59CD59AD586D590D592D59419
:107FA2001200000E936E000E926E8182010E026E1E
:107FB200F40E016EE5EC3FF08192010E026EF40EBA
:107FC200016EE5EC3FF0F1D7000E056E000E046E77
:107FD200CBEC3FF009D0C6EC3FF0C1EC3FF0F2A48D
:107FE200FED7F294044A052A0550800A036E015016
:0E7FF200045C0250800A0358D8B01200ECD78D
:020000040020DA
:08000000FFFFFFFFFFFFFFFF00
:020000040030CA
:0E000000FF071F1FFF8385FF0FC00FE00F409B
:00000001FF
